{
  "_format": "hh-sol-artifact-1",
  "contractName": "MultiHopSwapRouter",
  "sourceName": "contracts/MultiHopSwapRouter.sol",
  "abi": [
    {
      "inputs": [
        {
          "internalType": "address",
          "name": "_poolContract",
          "type": "address"
        }
      ],
      "stateMutability": "nonpayable",
      "type": "constructor"
    },
    {
      "anonymous": false,
      "inputs": [
        {
          "indexed": true,
          "internalType": "address",
          "name": "user",
          "type": "address"
        },
        {
          "indexed": false,
          "internalType": "address",
          "name": "tokenIn",
          "type": "address"
        },
        {
          "indexed": false,
          "internalType": "address",
          "name": "tokenOut",
          "type": "address"
        },
        {
          "indexed": false,
          "internalType": "uint256",
          "name": "amountIn",
          "type": "uint256"
        },
        {
          "indexed": false,
          "internalType": "uint256",
          "name": "amountOut",
          "type": "uint256"
        }
      ],
      "name": "SwapExecuted",
      "type": "event"
    },
    {
      "inputs": [
        {
          "internalType": "address",
          "name": "tokenA",
          "type": "address"
        },
        {
          "internalType": "address",
          "name": "tokenB",
          "type": "address"
        },
        {
          "internalType": "address",
          "name": "tokenC",
          "type": "address"
        },
        {
          "internalType": "address",
          "name": "tokenD",
          "type": "address"
        },
        {
          "internalType": "uint256",
          "name": "amountIn",
          "type": "uint256"
        }
      ],
      "name": "getAmountOutThreeHop",
      "outputs": [
        {
          "internalType": "uint256",
          "name": "amountOut",
          "type": "uint256"
        }
      ],
      "stateMutability": "view",
      "type": "function"
    },
    {
      "inputs": [
        {
          "internalType": "address",
          "name": "tokenA",
          "type": "address"
        },
        {
          "internalType": "address",
          "name": "tokenB",
          "type": "address"
        },
        {
          "internalType": "address",
          "name": "tokenC",
          "type": "address"
        },
        {
          "internalType": "uint256",
          "name": "amountIn",
          "type": "uint256"
        }
      ],
      "name": "getAmountOutTwoHop",
      "outputs": [
        {
          "internalType": "uint256",
          "name": "amountOut",
          "type": "uint256"
        }
      ],
      "stateMutability": "view",
      "type": "function"
    },
    {
      "inputs": [],
      "name": "owner",
      "outputs": [
        {
          "internalType": "address",
          "name": "",
          "type": "address"
        }
      ],
      "stateMutability": "view",
      "type": "function"
    },
    {
      "inputs": [],
      "name": "poolContract",
      "outputs": [
        {
          "internalType": "contract IMultiTokenLiquidityPools",
          "name": "",
          "type": "address"
        }
      ],
      "stateMutability": "view",
      "type": "function"
    },
    {
      "inputs": [
        {
          "internalType": "address",
          "name": "token",
          "type": "address"
        },
        {
          "internalType": "uint256",
          "name": "amount",
          "type": "uint256"
        },
        {
          "internalType": "address",
          "name": "to",
          "type": "address"
        }
      ],
      "name": "recoverTokens",
      "outputs": [],
      "stateMutability": "nonpayable",
      "type": "function"
    },
    {
      "inputs": [
        {
          "internalType": "address",
          "name": "tokenIn",
          "type": "address"
        },
        {
          "internalType": "address",
          "name": "tokenOut",
          "type": "address"
        },
        {
          "internalType": "uint256",
          "name": "amountIn",
          "type": "uint256"
        },
        {
          "internalType": "uint256",
          "name": "amountOutMin",
          "type": "uint256"
        },
        {
          "internalType": "address",
          "name": "recipient",
          "type": "address"
        }
      ],
      "name": "swapSingleHop",
      "outputs": [
        {
          "internalType": "uint256",
          "name": "amountOut",
          "type": "uint256"
        }
      ],
      "stateMutability": "nonpayable",
      "type": "function"
    },
    {
      "inputs": [
        {
          "internalType": "address",
          "name": "tokenA",
          "type": "address"
        },
        {
          "internalType": "address",
          "name": "tokenB",
          "type": "address"
        },
        {
          "internalType": "address",
          "name": "tokenC",
          "type": "address"
        },
        {
          "internalType": "address",
          "name": "tokenD",
          "type": "address"
        },
        {
          "internalType": "uint256",
          "name": "amountIn",
          "type": "uint256"
        },
        {
          "internalType": "uint256",
          "name": "amountOutMin",
          "type": "uint256"
        },
        {
          "internalType": "address",
          "name": "recipient",
          "type": "address"
        }
      ],
      "name": "swapThreeHop",
      "outputs": [
        {
          "internalType": "uint256",
          "name": "amountOut",
          "type": "uint256"
        }
      ],
      "stateMutability": "nonpayable",
      "type": "function"
    },
    {
      "inputs": [
        {
          "internalType": "address",
          "name": "tokenA",
          "type": "address"
        },
        {
          "internalType": "address",
          "name": "tokenB",
          "type": "address"
        },
        {
          "internalType": "address",
          "name": "tokenC",
          "type": "address"
        },
        {
          "internalType": "uint256",
          "name": "amountIn",
          "type": "uint256"
        },
        {
          "internalType": "uint256",
          "name": "amountOutMin",
          "type": "uint256"
        },
        {
          "internalType": "address",
          "name": "recipient",
          "type": "address"
        }
      ],
      "name": "swapTwoHop",
      "outputs": [
        {
          "internalType": "uint256",
          "name": "amountOut",
          "type": "uint256"
        }
      ],
      "stateMutability": "nonpayable",
      "type": "function"
    }
  ],
  "bytecode": "0x6080346100b657601f61122338819003918201601f19168301916001600160401b038311848410176100bb578084926020946040528339810103126100b657516001600160a01b038116908190036100b65780156100825760018060a01b0319908160005416176000553390600154161760015560405161115190816100d28239f35b60405162461bcd60e51b815260206004820152600c60248201526b5a65726f206164647265737360a01b6044820152606490fd5b600080fd5b634e487b7160e01b600052604160045260246000fdfe608080604052600436101561001357600080fd5b60003560e01c9081631e899fec146107da575080631f28ad4214610726578063226db57e146105b05780635b0f94491461041b57806361b0a56e1461030057806388d52ef7146102d75780638da5cb5b146102ae5763913e58591461007757600080fd5b346101fd5760803660031901126101fd57610090610b1d565b610098610b33565b6100a0610b49565b600054604051632ef61c2160e01b8082526001600160a01b0386811660048401528581166024840152602096919592931691908684604481865afa801561020957879460009161027b575b5061013791816100ff610104931515610fcb565b611061565b60409591955180938192630153543560e21b98898452606435600485016040919493926060820195825260208201520152565b0381865afa948515610209578791600096610248575b506040519687526001600160a01b0380841660048901521660248701529394938480604481015b0381855afa8015610209578694600091610215575b5090816100ff61019a93151561100c565b60405193845260048401959095526024830152604482019390935291829060649082905afa908115610209576000916101d7575b50604051908152f35b90508181813d8311610202575b6101ee8183610b75565b810103126101fd5751386101ce565b600080fd5b503d6101e4565b6040513d6000823e3d90fd5b8581939692503d8311610241575b61022d8183610b75565b810103126101fd575185939061019a610189565b503d610223565b8281939297503d8311610274575b6102608183610b75565b810103126101fd575193869061017461014d565b503d610256565b85819692503d83116102a7575b6102928183610b75565b810103126101fd5792518693906101376100eb565b503d610288565b346101fd5760003660031901126101fd576001546040516001600160a01b039091168152602090f35b346101fd5760003660031901126101fd576000546040516001600160a01b039091168152602090f35b346101fd5760603660031901126101fd57610319610b1d565b610321610b49565b6001546001600160a01b03929190831633036103ea5760405163a9059cbb60e01b81526001600160a01b0391909116600482015260248035908201529160209183916044918391600091165af1908115610209576000916103bc575b501561038557005b60405162461bcd60e51b815260206004820152600f60248201526e151c985b9cd9995c8819985a5b1959608a1b6044820152606490fd5b6103dd915060203d81116103e3575b6103d58183610b75565b810190610bad565b8161037d565b503d6103cb565b60405162461bcd60e51b81526020600482015260096024820152682737ba1037bbb732b960b91b6044820152606490fd5b346101fd5760c03660031901126101fd57610434610b1d565b61043c610b33565b90610445610b49565b60a435926001600160a01b0392916064359084861686036101fd576040516323b872dd60e01b815233600482015230602482015260448101839052602096878260648160008a8c165af18015610209576104fe956104b06104c6928b95600091610593575b50610bc5565b60843590856104c088838c610c46565b91610e28565b60405163a9059cbb60e01b81526001600160a01b03909216600483015260248201819052969094859190829060009082906044820190565b039286165af1928315610209577f764f0dc063c06f32d89a3f3af80c0db4be8a090901f589a478b447e0a51f09f19361053f91600091610576575b50610c05565b604080516001600160a01b03958616815294909116602085015283015260608201839052339180608081015b0390a2604051908152f35b61058d9150883d8a116103e3576103d58183610b75565b88610539565b6105aa9150863d88116103e3576103d58183610b75565b8c6104aa565b346101fd5760e03660031901126101fd576105c9610b1d565b6105d1610b33565b6105d9610b49565b6105e1610b5f565b6001600160a01b039290919060c43580851690036101fd576040516323b872dd60e01b815233600482015230602482015260843560448201529160208360648160008a8a165af19283156102095761066093610644916000916107075750610bc5565b836104c060a435938361065a608435838c610c46565b91610c46565b60405163a9059cbb60e01b815260c4356001600160a01b031660048201526024810182905290926020908290604490829060009087165af18015610209576020946106d585927f764f0dc063c06f32d89a3f3af80c0db4be8a090901f589a478b447e0a51f09f1946000916105765750610c05565b604080516001600160a01b0392831681529490911660208501526084359084015260608301523391806080810161056b565b610720915060203d6020116103e3576103d58183610b75565b886104aa565b346101fd5760a03660031901126101fd5761073f610b1d565b610747610b33565b608435916001600160a01b039160443583851685036101fd576040516323b872dd60e01b81523360048201523060248201526044810182905260209590929086846064816000898b165af1908115610209576107af88926104fe966000916107bd5750610bc5565b6104c6606435858589610e28565b6107d49150843d86116103e3576103d58183610b75565b8a6104aa565b346101fd5760a03660031901126101fd576107f3610b1d565b906107fc610b33565b90610805610b49565b61080d610b5f565b600054632ef61c2160e01b8085526001600160a01b038781166004870152868116602487015260209791969216939291908786604481885afa8015610209578896600091610ae4575b5061089f939291816100ff61086c931515610fcb565b60409791975180958192630153543560e21b9a8b8452608435600485016040919493926060820195825260208201520152565b0381885afa92831561020957600093610ab5575b506040518781526001600160a01b03828116600483015285166024820152908882604481895afa8015610209578992600091610a82575b5090816100ff6108fb93151561100c565b60405188815260048101959095526024850191909152604484015282606481875afa958615610209578792600097610a4d575b506040519081526001600160a01b0380851660048301529091166024820152908180604481015b0381865afa90811561020957600091610a20575b5080156109e6578593929161097d91611061565b60405193845260048401959095526024830152604482019390935291829060649082905afa908115610209576000916109b95750604051908152f35b90508181813d83116109df575b6109d08183610b75565b810103126101fd5751826101ce565b503d6109c6565b60405162461bcd60e51b8152600481018790526012602482015271141bdbdb0810cb51081b9bdd08199bdd5b9960721b6044820152606490fd5b90508581813d8311610a46575b610a378183610b75565b810103126101fd575186610969565b503d610a2d565b838193949298503d8311610a7b575b610a668183610b75565b810103126101fd57519486919061095561092e565b503d610a5c565b8381939492503d8311610aae575b610a9a8183610b75565b810103126101fd57518891906108fb6108ea565b503d610a90565b9092508781813d8311610add575b610acd8183610b75565b810103126101fd575191886108b3565b503d610ac3565b8781989250949392943d8311610b16575b610aff8183610b75565b810103126101fd579451879591929061089f610856565b503d610af5565b600435906001600160a01b03821682036101fd57565b602435906001600160a01b03821682036101fd57565b604435906001600160a01b03821682036101fd57565b606435906001600160a01b03821682036101fd57565b90601f8019910116810190811067ffffffffffffffff821117610b9757604052565b634e487b7160e01b600052604160045260246000fd5b908160209103126101fd575180151581036101fd5790565b15610bcc57565b60405162461bcd60e51b8152602060048201526011602482015270151c985b9cd9995c925b8819985a5b1959607a1b6044820152606490fd5b15610c0c57565b60405162461bcd60e51b8152602060048201526012602482015271151c985b9cd9995c93dd5d0819985a5b195960721b6044820152606490fd5b6000805460408051632ef61c2160e01b81526001600160a01b0385811660048301529586166024820152909594929360209392831692908483604481875afa928315610db6578693610df5575b508215610dc057875163095ea7b360e01b81526001600160a01b0394909416600485015260248401879052811692848160448189885af1908115610db6578691610d99575b5015610d6457839291856084928154168951988995869463b33daea960e01b86526004860152602485015260448401528160648401525af1938415610d5957508193610d25575b50505090565b9091809350813d8311610d52575b610d3d8183610b75565b81010312610d4f575051388080610d1f565b80fd5b503d610d33565b51913d9150823e3d90fd5b865162461bcd60e51b815260048101859052600e60248201526d105c1c1c9bdd994819985a5b195960921b6044820152606490fd5b610db09150853d87116103e3576103d58183610b75565b38610cd8565b88513d88823e3d90fd5b875162461bcd60e51b815260048101869052600e60248201526d141bdbdb081b9bdd08199bdd5b9960921b6044820152606490fd5b9092508481813d8311610e21575b610e0d8183610b75565b81010312610e1d57519138610c93565b8580fd5b503d610e03565b6000805460408051632ef61c2160e01b81526001600160a01b0385811660048301529586166024820152909692946020949281169391928584604481885afa938415610f59578794610f98575b508315610f6357885163095ea7b360e01b81526001600160a01b039590951660048601526024850188905281169385816044818a895af1908115610f59578791610f3c575b5015610f07579185608492869594825416908a51998a96879563b33daea960e01b875260048701526024860152604485015260648401525af1938415610d5957508193610d255750505090565b875162461bcd60e51b815260048101869052600e60248201526d105c1c1c9bdd994819985a5b195960921b6044820152606490fd5b610f539150863d88116103e3576103d58183610b75565b38610eba565b89513d89823e3d90fd5b885162461bcd60e51b815260048101879052600e60248201526d141bdbdb081b9bdd08199bdd5b9960921b6044820152606490fd5b9093508581813d8311610fc4575b610fb08183610b75565b81010312610fc057519238610e75565b8680fd5b503d610fa6565b15610fd257565b60405162461bcd60e51b8152602060048201526012602482015271141bdbdb08104b50881b9bdd08199bdd5b9960721b6044820152606490fd5b1561101357565b60405162461bcd60e51b8152602060048201526012602482015271141bdbdb08108b50c81b9bdd08199bdd5b9960721b6044820152606490fd5b51906001600160a01b03821682036101fd57565b60018060a01b039160009260a08185541693602460405180968193632f380b3560e01b835260048301525afa93841561110f5780809481966110b1575b50509181169116036110ad5791565b9091565b945094505060a0833d8211611107575b816110ce60a09383610b75565b8101031261110357806110e08461104d565b936110ed6020820161104d565b506060604082015191015194909495909161109e565b8380fd5b3d91506110c1565b604051903d90823e3d90fdfea26469706673582212209154b21ecd191c628efdea193d295212699ac78fe48f8a57c39b53246cc043a964736f6c63430008140033",
  "linkReferences": {},
  "deployedLinkReferences": {}
}