{
  "_format": "hh-sol-artifact-1",
  "contractName": "MultiTokenLiquidityPools",
  "sourceName": "contracts/MultiTokenLiquidityPools.sol",
  "abi": [
    {
      "inputs": [],
      "stateMutability": "nonpayable",
      "type": "constructor"
    },
    {
      "anonymous": false,
      "inputs": [
        {
          "indexed": true,
          "internalType": "uint256",
          "name": "poolId",
          "type": "uint256"
        },
        {
          "indexed": true,
          "internalType": "address",
          "name": "provider",
          "type": "address"
        },
        {
          "indexed": false,
          "internalType": "uint256",
          "name": "amount0",
          "type": "uint256"
        },
        {
          "indexed": false,
          "internalType": "uint256",
          "name": "amount1",
          "type": "uint256"
        },
        {
          "indexed": false,
          "internalType": "uint256",
          "name": "lpTokens",
          "type": "uint256"
        }
      ],
      "name": "LiquidityAdded",
      "type": "event"
    },
    {
      "anonymous": false,
      "inputs": [
        {
          "indexed": true,
          "internalType": "uint256",
          "name": "poolId",
          "type": "uint256"
        },
        {
          "indexed": true,
          "internalType": "address",
          "name": "provider",
          "type": "address"
        },
        {
          "indexed": false,
          "internalType": "uint256",
          "name": "amount0",
          "type": "uint256"
        },
        {
          "indexed": false,
          "internalType": "uint256",
          "name": "amount1",
          "type": "uint256"
        },
        {
          "indexed": false,
          "internalType": "uint256",
          "name": "lpTokens",
          "type": "uint256"
        }
      ],
      "name": "LiquidityRemoved",
      "type": "event"
    },
    {
      "anonymous": false,
      "inputs": [
        {
          "indexed": true,
          "internalType": "uint256",
          "name": "poolId",
          "type": "uint256"
        },
        {
          "indexed": false,
          "internalType": "address",
          "name": "token0",
          "type": "address"
        },
        {
          "indexed": false,
          "internalType": "address",
          "name": "token1",
          "type": "address"
        }
      ],
      "name": "PoolCreated",
      "type": "event"
    },
    {
      "anonymous": false,
      "inputs": [
        {
          "indexed": true,
          "internalType": "uint256",
          "name": "poolId",
          "type": "uint256"
        },
        {
          "indexed": true,
          "internalType": "address",
          "name": "user",
          "type": "address"
        },
        {
          "indexed": false,
          "internalType": "address",
          "name": "tokenIn",
          "type": "address"
        },
        {
          "indexed": false,
          "internalType": "uint256",
          "name": "amountIn",
          "type": "uint256"
        },
        {
          "indexed": false,
          "internalType": "uint256",
          "name": "amountOut",
          "type": "uint256"
        }
      ],
      "name": "Swap",
      "type": "event"
    },
    {
      "inputs": [],
      "name": "FEE_DENOMINATOR",
      "outputs": [
        {
          "internalType": "uint256",
          "name": "",
          "type": "uint256"
        }
      ],
      "stateMutability": "view",
      "type": "function"
    },
    {
      "inputs": [],
      "name": "FEE_PERCENT",
      "outputs": [
        {
          "internalType": "uint256",
          "name": "",
          "type": "uint256"
        }
      ],
      "stateMutability": "view",
      "type": "function"
    },
    {
      "inputs": [
        {
          "internalType": "uint256",
          "name": "poolId",
          "type": "uint256"
        },
        {
          "internalType": "uint256",
          "name": "amount0Desired",
          "type": "uint256"
        },
        {
          "internalType": "uint256",
          "name": "amount1Desired",
          "type": "uint256"
        },
        {
          "internalType": "uint256",
          "name": "amount0Min",
          "type": "uint256"
        },
        {
          "internalType": "uint256",
          "name": "amount1Min",
          "type": "uint256"
        }
      ],
      "name": "addLiquidity",
      "outputs": [
        {
          "internalType": "uint256",
          "name": "amount0",
          "type": "uint256"
        },
        {
          "internalType": "uint256",
          "name": "amount1",
          "type": "uint256"
        },
        {
          "internalType": "uint256",
          "name": "lpTokens",
          "type": "uint256"
        }
      ],
      "stateMutability": "nonpayable",
      "type": "function"
    },
    {
      "inputs": [
        {
          "internalType": "address",
          "name": "token0",
          "type": "address"
        },
        {
          "internalType": "address",
          "name": "token1",
          "type": "address"
        }
      ],
      "name": "createPool",
      "outputs": [
        {
          "internalType": "uint256",
          "name": "poolId",
          "type": "uint256"
        }
      ],
      "stateMutability": "nonpayable",
      "type": "function"
    },
    {
      "inputs": [
        {
          "internalType": "uint256",
          "name": "amountIn",
          "type": "uint256"
        },
        {
          "internalType": "uint256",
          "name": "reserveIn",
          "type": "uint256"
        },
        {
          "internalType": "uint256",
          "name": "reserveOut",
          "type": "uint256"
        }
      ],
      "name": "getAmountOut",
      "outputs": [
        {
          "internalType": "uint256",
          "name": "amountOut",
          "type": "uint256"
        }
      ],
      "stateMutability": "pure",
      "type": "function"
    },
    {
      "inputs": [
        {
          "internalType": "address",
          "name": "token0",
          "type": "address"
        },
        {
          "internalType": "address",
          "name": "token1",
          "type": "address"
        }
      ],
      "name": "getPoolId",
      "outputs": [
        {
          "internalType": "uint256",
          "name": "",
          "type": "uint256"
        }
      ],
      "stateMutability": "view",
      "type": "function"
    },
    {
      "inputs": [
        {
          "internalType": "uint256",
          "name": "poolId",
          "type": "uint256"
        }
      ],
      "name": "getPoolInfo",
      "outputs": [
        {
          "internalType": "address",
          "name": "token0",
          "type": "address"
        },
        {
          "internalType": "address",
          "name": "token1",
          "type": "address"
        },
        {
          "internalType": "uint256",
          "name": "reserve0",
          "type": "uint256"
        },
        {
          "internalType": "uint256",
          "name": "reserve1",
          "type": "uint256"
        },
        {
          "internalType": "uint256",
          "name": "totalLPTokens",
          "type": "uint256"
        }
      ],
      "stateMutability": "view",
      "type": "function"
    },
    {
      "inputs": [
        {
          "internalType": "uint256",
          "name": "poolId",
          "type": "uint256"
        },
        {
          "internalType": "address",
          "name": "user",
          "type": "address"
        }
      ],
      "name": "getUserPosition",
      "outputs": [
        {
          "internalType": "uint256",
          "name": "lpTokens",
          "type": "uint256"
        },
        {
          "internalType": "uint256",
          "name": "token0Deposited",
          "type": "uint256"
        },
        {
          "internalType": "uint256",
          "name": "token1Deposited",
          "type": "uint256"
        }
      ],
      "stateMutability": "view",
      "type": "function"
    },
    {
      "inputs": [
        {
          "internalType": "uint256",
          "name": "",
          "type": "uint256"
        },
        {
          "internalType": "address",
          "name": "",
          "type": "address"
        }
      ],
      "name": "lpPositions",
      "outputs": [
        {
          "internalType": "uint256",
          "name": "lpTokens",
          "type": "uint256"
        },
        {
          "internalType": "uint256",
          "name": "token0Deposited",
          "type": "uint256"
        },
        {
          "internalType": "uint256",
          "name": "token1Deposited",
          "type": "uint256"
        }
      ],
      "stateMutability": "view",
      "type": "function"
    },
    {
      "inputs": [],
      "name": "owner",
      "outputs": [
        {
          "internalType": "address",
          "name": "",
          "type": "address"
        }
      ],
      "stateMutability": "view",
      "type": "function"
    },
    {
      "inputs": [
        {
          "internalType": "address",
          "name": "",
          "type": "address"
        },
        {
          "internalType": "address",
          "name": "",
          "type": "address"
        }
      ],
      "name": "pairToPoolId",
      "outputs": [
        {
          "internalType": "uint256",
          "name": "",
          "type": "uint256"
        }
      ],
      "stateMutability": "view",
      "type": "function"
    },
    {
      "inputs": [],
      "name": "poolCount",
      "outputs": [
        {
          "internalType": "uint256",
          "name": "",
          "type": "uint256"
        }
      ],
      "stateMutability": "view",
      "type": "function"
    },
    {
      "inputs": [
        {
          "internalType": "uint256",
          "name": "",
          "type": "uint256"
        }
      ],
      "name": "pools",
      "outputs": [
        {
          "internalType": "address",
          "name": "token0",
          "type": "address"
        },
        {
          "internalType": "address",
          "name": "token1",
          "type": "address"
        },
        {
          "internalType": "uint256",
          "name": "reserve0",
          "type": "uint256"
        },
        {
          "internalType": "uint256",
          "name": "reserve1",
          "type": "uint256"
        },
        {
          "internalType": "uint256",
          "name": "totalLPTokens",
          "type": "uint256"
        },
        {
          "internalType": "bool",
          "name": "exists",
          "type": "bool"
        }
      ],
      "stateMutability": "view",
      "type": "function"
    },
    {
      "inputs": [
        {
          "internalType": "uint256",
          "name": "amountA",
          "type": "uint256"
        },
        {
          "internalType": "uint256",
          "name": "reserveA",
          "type": "uint256"
        },
        {
          "internalType": "uint256",
          "name": "reserveB",
          "type": "uint256"
        }
      ],
      "name": "quote",
      "outputs": [
        {
          "internalType": "uint256",
          "name": "amountB",
          "type": "uint256"
        }
      ],
      "stateMutability": "pure",
      "type": "function"
    },
    {
      "inputs": [
        {
          "internalType": "uint256",
          "name": "poolId",
          "type": "uint256"
        },
        {
          "internalType": "uint256",
          "name": "lpTokens",
          "type": "uint256"
        },
        {
          "internalType": "uint256",
          "name": "amount0Min",
          "type": "uint256"
        },
        {
          "internalType": "uint256",
          "name": "amount1Min",
          "type": "uint256"
        }
      ],
      "name": "removeLiquidity",
      "outputs": [
        {
          "internalType": "uint256",
          "name": "amount0",
          "type": "uint256"
        },
        {
          "internalType": "uint256",
          "name": "amount1",
          "type": "uint256"
        }
      ],
      "stateMutability": "nonpayable",
      "type": "function"
    },
    {
      "inputs": [
        {
          "internalType": "uint256",
          "name": "poolId",
          "type": "uint256"
        },
        {
          "internalType": "address",
          "name": "tokenIn",
          "type": "address"
        },
        {
          "internalType": "uint256",
          "name": "amountIn",
          "type": "uint256"
        },
        {
          "internalType": "uint256",
          "name": "amountOutMin",
          "type": "uint256"
        }
      ],
      "name": "swap",
      "outputs": [
        {
          "internalType": "uint256",
          "name": "amountOut",
          "type": "uint256"
        }
      ],
      "stateMutability": "nonpayable",
      "type": "function"
    }
  ],
  "bytecode": "0x6080806040523461002857600080546001600160a01b0319163317905561134c908161002e8239f35b600080fdfe604060808152600436101561001357600080fd5b60003560e01c8063054d50d41461100c578063087d596514610fbf5780631112394214610e825780632ef61c2114610f565780632f380b3514610ee4578063869da9db14610e825780638da5cb5b14610e59578063a360501c14610a0a578063ac4afa3814610998578063ad615dec14610976578063b33daea914610673578063d73792a914610656578063e34336151461040f578063eaf98d23146103f3578063f525cb68146103d45763f88bf15a146100cd57600080fd5b346103cf5760803660031901126103cf576004356000526002602052806000206100fd60ff60058301541661108f565b6004356000526003602052816000203360005260205281600020906024358254106103995790816002610192930154916101a061013c846024356111a2565b61014b600485015480926111b5565b958695600386015461018861016b85610166846024356111a2565b6111b5565b9889936044358210158061038d575b610183906110cc565b6111e2565b60028801556111e2565b6003850155602435906111e2565b60048301556101b260243582546111e2565b808255806103085750600281600060018194015501555b8054845163a9059cbb60e01b808252336004830152602482018690529290916001600160a01b0391906020908490604490829060009087165af19081156102fd576102216001926020956000916102e0575b50611124565b015486519384523360048501526024840185905283916044918391600091165af180156102d55761025a916000916102a6575b50611163565b82518281526020810182905260243560408201523390600435907f9c27aedc1d1fccd4271dc15980dab26a907cdb41ed08aef747c6d0a9680f55ce90606090a382519182526020820152f35b6102c8915060203d6020116102ce575b6102c0818361106d565b81019061110c565b38610254565b503d6102b6565b84513d6000823e3d90fd5b6102f79150863d88116102ce576102c0818361106d565b3861021b565b87513d6000823e3d90fd5b670de0b6b3a7640000918260243502602435810484146024351517156103775761034460029161033e61037095602435906111d5565b906111b5565b916001810161036081548761035987836111a2565b04906111e2565b90550192610359845492836111a2565b90556101c9565b634e487b7160e01b600052601160045260246000fd5b5060643585101561017a565b825162461bcd60e51b815260206004820152600f60248201526e0496e73756666696369656e74204c5608c1b6044820152606490fd5b600080fd5b50346103cf5760003660031901126103cf576020906001549051908152f35b50346103cf5760003660031901126103cf5760209051601e8152f35b50346103cf57806003193601126103cf57610428611041565b90610431611057565b6001600160a01b039290919082818581168015158061064b575b1561061857868316908181146105e757908794939291116105dc575b505016918260005260209360048552808360002092169182600052855282600020546105aa57600154600019811461037757600101938460015583519060c082019382851067ffffffffffffffff8611176105945786600587948a7f1a7a1d16c3ec9167827a7be3534be26288720a0bdd3de56d290f415db3d3e0a697849988528683528183018681528884019060008252606085019260008452600260808701956000875260a088019960018b5260005252808b600020965116906bffffffffffffffffffffffff60a01b91828854161787556001870192511690825416179055516002840155516003830155516004820155019051151560ff80198354169116179055816000526004885282600020816000528852848360002055825191825287820152a251908152f35b634e487b7160e01b600052604160045260246000fd5b825162461bcd60e51b815260048101869052600b60248201526a506f6f6c2065786973747360a81b6044820152606490fd5b945090503880610467565b855162461bcd60e51b815260206004820152600a60248201526929b0b6b2903a37b5b2b760b11b6044820152606490fd5b845162461bcd60e51b815260206004820152600c60248201526b5a65726f206164647265737360a01b6044820152606490fd5b50868316151561044b565b50346103cf5760003660031901126103cf57602090516127108152f35b50346103cf5760803660031901126103cf5760043590610691611057565b9060443591836000526020936002855282600020936106b660ff60058701541661108f565b84546001600160a01b0395938616939086168414808015610967575b15610933578015610926576106f960028301545b821561091b576003840154905b856111ef565b9660643588106108e35786516323b872dd60e01b815233600482015230602482015260448101859052898160648160008b5af19081156108d8576000916108bb575b5015610883578115610876578861077d826001860154165b895163a9059cbb60e01b8152336004820152602481018c9052938492839160009183906044820190565b0393165af19081156102fd57600091610859575b501561082057156107f957806002600392016107ae8482546111d5565b9055016107bc8682546111e2565b90555b83519283528583015283838301527fbcb6ba82bf7b5ab7e1ef293120339d48a22f48e74d6c080577d569489528028460603393a351908152f35b8060036002920161080b8482546111d5565b9055016108198682546111e2565b90556107bf565b855162461bcd60e51b8152600481018990526012602482015271151c985b9cd9995c93dd5d0819985a5b195960721b6044820152606490fd5b6108709150893d8b116102ce576102c0818361106d565b38610791565b8861077d82855416610753565b865162461bcd60e51b8152600481018a90526011602482015270151c985b9cd9995c925b8819985a5b1959607a1b6044820152606490fd5b6108d291508a3d8c116102ce576102c0818361106d565b3861073b565b88513d6000823e3d90fd5b865162461bcd60e51b8152600481018a90526011602482015270151bdbc81b1a5d1d1b19481bdd5d1c1d5d607a1b6044820152606490fd5b6002840154906106f3565b6106f960038301546106e6565b855162461bcd60e51b815260048101899052600d60248201526c24b73b30b634b2103a37b5b2b760991b6044820152606490fd5b508660018301541685146106d2565b50346103cf5760209061099161098b36611027565b916112af565b9051908152f35b50346103cf5760203660031901126103cf5760c0906004356000526002602052806000209060018060a01b0391828154169260018201541691600282015460038301549160ff6005600486015495015416948151968752602087015285015260608401526080830152151560a0820152f35b50346103cf5760a03660031901126103cf57600435602491823592604435916064359360843581600052602090600282528360002090610a5060ff60058401541661108f565b60028201988954801580610e4d575b15610d48575090610a7d9197985b8810159081610d3d575b506110cc565b805484516323b872dd60e01b808252336004830152306024830152604482018990526001600160a01b039a92909190859082908d16816000816064810103925af19081156102fd57610b1392610add87938d93600091610d265750611124565b6001868101548a5192835233600484015230602484015260448301939093529c9093849290911690829060009082906064820190565b03925af1908115610d1b5790610b3091600091610d045750611163565b60048201918254918215600014610cc057610b4b8a8a6111a2565b60006003821115610cb3575080808d1c8d8101809111610c9e57905b828210610c805750505b975b8815610c4d575087600295938b610ba860038d9e9f989686610c499f610b9d90610baf99546111d5565b9055019182546111d5565b90556111d5565b90558360005260038152846000209033600052528360002090610bd38683546111d5565b82558101610be28882546111d5565b905501610bf08782546111d5565b9055815185815260208101879052604081018490523391907f089607a52cca0d390ff7d0ad4e97545804dcc41418e1daee9ec3948596fec94490606090a351938493846040919493926060820195825260208201520152565b0390f35b85600e6064928a519262461bcd60e51b845260048401528201526d5a65726f204c5020746f6b656e7360901b6044820152fd5b909150610c9682610c9181846111b5565b6111d5565b8d1c90610b67565b8a634e487b7160e01b60005260116004526000fd5b9015610b7157508a610b71565b610cd5610ccd848b6111a2565b8254906111b5565b610ced610ce2858d6111a2565b6003850154906111b5565b80821015610cfd57505b97610b73565b9050610cf7565b6102c89150853d87116102ce576102c0818361106d565b86513d6000823e3d90fd5b6102f79150853d87116102ce576102c0818361106d565b905088101538610a77565b97600384015498610d5a8a82856112af565b99828b11610dae57505050818810610d785790610a7d919798610a6d565b855162461bcd60e51b8152600481018590526010818901526f536c6970706167653a20746f6b656e3160801b6044820152606490fd5b82610dba939b506112af565b908111610e0a57888110610dd45790610a7d919798610a6d565b855162461bcd60e51b8152600481018590526010818901526f0536c6970706167653a20746f6b656e360841b6044820152606490fd5b855162461bcd60e51b8152600481018590526017818901527f4f7074696d616c206578636565647320646573697265640000000000000000006044820152606490fd5b50600384015415610a5f565b50346103cf5760003660031901126103cf5760005490516001600160a01b039091168152602090f35b50346103cf57806003193601126103cf57610e9b611057565b6004356000908152600360209081528382206001600160a01b03939093168252918252829020805460018201546002909201549351908152918201526040810191909152606090f35b50346103cf5760203660031901126103cf5760a09060043560005260026020528060002090610f1960ff60058401541661108f565b600180841b039182815416926001820154169160028201549060046003840154930154938151958652602086015284015260608301526080820152f35b50346103cf57806003193601126103cf57602090610f72611041565b610f7a611057565b906001600160a01b0390828183821684821611610fb4575b5050811660005260048452826000209116600052825280600020549051908152f35b935090508138610f92565b50346103cf57806003193601126103cf57602090610fdb611041565b610fe3611057565b9060018060a01b0380911660005260048452826000209116600052825280600020549051908152f35b50346103cf5760209061099161102136611027565b916111ef565b60609060031901126103cf57600435906024359060443590565b600435906001600160a01b03821682036103cf57565b602435906001600160a01b03821682036103cf57565b90601f8019910116810190811067ffffffffffffffff82111761059457604052565b1561109657565b60405162461bcd60e51b815260206004820152600e60248201526d141bdbdb081b9bdd08199bdd5b9960921b6044820152606490fd5b156110d357565b60405162461bcd60e51b815260206004820152601160248201527042656c6f77206d696e20616d6f756e747360781b6044820152606490fd5b908160209103126103cf575180151581036103cf5790565b1561112b57565b60405162461bcd60e51b815260206004820152601060248201526f151c985b9cd9995c8c0819985a5b195960821b6044820152606490fd5b1561116a57565b60405162461bcd60e51b815260206004820152601060248201526f151c985b9cd9995c8c4819985a5b195960821b6044820152606490fd5b8181029291811591840414171561037757565b81156111bf570490565b634e487b7160e01b600052601260045260246000fd5b9190820180921161037757565b9190820391821161037757565b9190821561127d57801591821580611274575b15611240576126f2808502948504036103775761121f90846111a2565b916127108083029283041417156103775761123d9261033e916111d5565b90565b60405162461bcd60e51b815260206004820152600c60248201526b4e6f206c697175696469747960a01b6044820152606490fd5b50801515611202565b60405162461bcd60e51b815260206004820152600a60248201526916995c9bc81a5b9c1d5d60b21b6044820152606490fd5b8015158061130d575b80611304575b156112d05761123d92610166916111a2565b60405162461bcd60e51b815260206004820152600c60248201526b496e76616c6964206172677360a01b6044820152606490fd5b508215156112be565b508115156112b856fea26469706673582212201f8199afb542babc98e3da3f404160d722d75e2f6e807c59a630cbdb5c2fa4c364736f6c63430008140033",
  "linkReferences": {},
  "deployedLinkReferences": {}
}