{"contracts/MultiHopSwapRouter.sol":{"MultiHopSwapRouter":{"abi":[{"inputs":[{"internalType":"address","name":"_poolContract","type":"address"}],"stateMutability":"nonpayable","type":"constructor"},{"anonymous":false,"inputs":[{"indexed":true,"internalType":"address","name":"user","type":"address"},{"indexed":false,"internalType":"address","name":"tokenIn","type":"address"},{"indexed":false,"internalType":"address","name":"tokenOut","type":"address"},{"indexed":false,"internalType":"uint256","name":"amountIn","type":"uint256"},{"indexed":false,"internalType":"uint256","name":"amountOut","type":"uint256"}],"name":"SwapExecuted","type":"event"},{"inputs":[{"internalType":"address","name":"tokenA","type":"address"},{"internalType":"address","name":"tokenB","type":"address"},{"internalType":"address","name":"tokenC","type":"address"},{"internalType":"address","name":"tokenD","type":"address"},{"internalType":"uint256","name":"amountIn","type":"uint256"}],"name":"getAmountOutThreeHop","outputs":[{"internalType":"uint256","name":"amountOut","type":"uint256"}],"stateMutability":"view","type":"function"},{"inputs":[{"internalType":"address","name":"tokenA","type":"address"},{"internalType":"address","name":"tokenB","type":"address"},{"internalType":"address","name":"tokenC","type":"address"},{"internalType":"uint256","name":"amountIn","type":"uint256"}],"name":"getAmountOutTwoHop","outputs":[{"internalType":"uint256","name":"amountOut","type":"uint256"}],"stateMutability":"view","type":"function"},{"inputs":[],"name":"owner","outputs":[{"internalType":"address","name":"","type":"address"}],"stateMutability":"view","type":"function"},{"inputs":[],"name":"poolContract","outputs":[{"internalType":"contract IMultiTokenLiquidityPools","name":"","type":"address"}],"stateMutability":"view","type":"function"},{"inputs":[{"internalType":"address","name":"token","type":"address"},{"internalType":"uint256","name":"amount","type":"uint256"},{"internalType":"address","name":"to","type":"address"}],"name":"recoverTokens","outputs":[],"stateMutability":"nonpayable","type":"function"},{"inputs":[{"internalType":"address","name":"tokenIn","type":"address"},{"internalType":"address","name":"tokenOut","type":"address"},{"internalType":"uint256","name":"amountIn","type":"uint256"},{"internalType":"uint256","name":"amountOutMin","type":"uint256"},{"internalType":"address","name":"recipient","type":"address"}],"name":"swapSingleHop","outputs":[{"internalType":"uint256","name":"amountOut","type":"uint256"}],"stateMutability":"nonpayable","type":"function"},{"inputs":[{"internalType":"address","name":"tokenA","type":"address"},{"internalType":"address","name":"tokenB","type":"address"},{"internalType":"address","name":"tokenC","type":"address"},{"internalType":"address","name":"tokenD","type":"address"},{"internalType":"uint256","name":"amountIn","type":"uint256"},{"internalType":"uint256","name":"amountOutMin","type":"uint256"},{"internalType":"address","name":"recipient","type":"address"}],"name":"swapThreeHop","outputs":[{"internalType":"uint256","name":"amountOut","type":"uint256"}],"stateMutability":"nonpayable","type":"function"},{"inputs":[{"internalType":"address","name":"tokenA","type":"address"},{"internalType":"address","name":"tokenB","type":"address"},{"internalType":"address","name":"tokenC","type":"address"},{"internalType":"uint256","name":"amountIn","type":"uint256"},{"internalType":"uint256","name":"amountOutMin","type":"uint256"},{"internalType":"address","name":"recipient","type":"address"}],"name":"swapTwoHop","outputs":[{"internalType":"uint256","name":"amountOut","type":"uint256"}],"stateMutability":"nonpayable","type":"function"}],"evm":{"bytecode":{"linkReferences":{},"object":"6080346100b657601f61122338819003918201601f19168301916001600160401b038311848410176100bb578084926020946040528339810103126100b657516001600160a01b038116908190036100b65780156100825760018060a01b0319908160005416176000553390600154161760015560405161115190816100d28239f35b60405162461bcd60e51b815260206004820152600c60248201526b5a65726f206164647265737360a01b6044820152606490fd5b600080fd5b634e487b7160e01b600052604160045260246000fdfe608080604052600436101561001357600080fd5b60003560e01c9081631e899fec146107da575080631f28ad4214610726578063226db57e146105b05780635b0f94491461041b57806361b0a56e1461030057806388d52ef7146102d75780638da5cb5b146102ae5763913e58591461007757600080fd5b346101fd5760803660031901126101fd57610090610b1d565b610098610b33565b6100a0610b49565b600054604051632ef61c2160e01b8082526001600160a01b0386811660048401528581166024840152602096919592931691908684604481865afa801561020957879460009161027b575b5061013791816100ff610104931515610fcb565b611061565b60409591955180938192630153543560e21b98898452606435600485016040919493926060820195825260208201520152565b0381865afa948515610209578791600096610248575b506040519687526001600160a01b0380841660048901521660248701529394938480604481015b0381855afa8015610209578694600091610215575b5090816100ff61019a93151561100c565b60405193845260048401959095526024830152604482019390935291829060649082905afa908115610209576000916101d7575b50604051908152f35b90508181813d8311610202575b6101ee8183610b75565b810103126101fd5751386101ce565b600080fd5b503d6101e4565b6040513d6000823e3d90fd5b8581939692503d8311610241575b61022d8183610b75565b810103126101fd575185939061019a610189565b503d610223565b8281939297503d8311610274575b6102608183610b75565b810103126101fd575193869061017461014d565b503d610256565b85819692503d83116102a7575b6102928183610b75565b810103126101fd5792518693906101376100eb565b503d610288565b346101fd5760003660031901126101fd576001546040516001600160a01b039091168152602090f35b346101fd5760003660031901126101fd576000546040516001600160a01b039091168152602090f35b346101fd5760603660031901126101fd57610319610b1d565b610321610b49565b6001546001600160a01b03929190831633036103ea5760405163a9059cbb60e01b81526001600160a01b0391909116600482015260248035908201529160209183916044918391600091165af1908115610209576000916103bc575b501561038557005b60405162461bcd60e51b815260206004820152600f60248201526e151c985b9cd9995c8819985a5b1959608a1b6044820152606490fd5b6103dd915060203d81116103e3575b6103d58183610b75565b810190610bad565b8161037d565b503d6103cb565b60405162461bcd60e51b81526020600482015260096024820152682737ba1037bbb732b960b91b6044820152606490fd5b346101fd5760c03660031901126101fd57610434610b1d565b61043c610b33565b90610445610b49565b60a435926001600160a01b0392916064359084861686036101fd576040516323b872dd60e01b815233600482015230602482015260448101839052602096878260648160008a8c165af18015610209576104fe956104b06104c6928b95600091610593575b50610bc5565b60843590856104c088838c610c46565b91610e28565b60405163a9059cbb60e01b81526001600160a01b03909216600483015260248201819052969094859190829060009082906044820190565b039286165af1928315610209577f764f0dc063c06f32d89a3f3af80c0db4be8a090901f589a478b447e0a51f09f19361053f91600091610576575b50610c05565b604080516001600160a01b03958616815294909116602085015283015260608201839052339180608081015b0390a2604051908152f35b61058d9150883d8a116103e3576103d58183610b75565b88610539565b6105aa9150863d88116103e3576103d58183610b75565b8c6104aa565b346101fd5760e03660031901126101fd576105c9610b1d565b6105d1610b33565b6105d9610b49565b6105e1610b5f565b6001600160a01b039290919060c43580851690036101fd576040516323b872dd60e01b815233600482015230602482015260843560448201529160208360648160008a8a165af19283156102095761066093610644916000916107075750610bc5565b836104c060a435938361065a608435838c610c46565b91610c46565b60405163a9059cbb60e01b815260c4356001600160a01b031660048201526024810182905290926020908290604490829060009087165af18015610209576020946106d585927f764f0dc063c06f32d89a3f3af80c0db4be8a090901f589a478b447e0a51f09f1946000916105765750610c05565b604080516001600160a01b0392831681529490911660208501526084359084015260608301523391806080810161056b565b610720915060203d6020116103e3576103d58183610b75565b886104aa565b346101fd5760a03660031901126101fd5761073f610b1d565b610747610b33565b608435916001600160a01b039160443583851685036101fd576040516323b872dd60e01b81523360048201523060248201526044810182905260209590929086846064816000898b165af1908115610209576107af88926104fe966000916107bd5750610bc5565b6104c6606435858589610e28565b6107d49150843d86116103e3576103d58183610b75565b8a6104aa565b346101fd5760a03660031901126101fd576107f3610b1d565b906107fc610b33565b90610805610b49565b61080d610b5f565b600054632ef61c2160e01b8085526001600160a01b038781166004870152868116602487015260209791969216939291908786604481885afa8015610209578896600091610ae4575b5061089f939291816100ff61086c931515610fcb565b60409791975180958192630153543560e21b9a8b8452608435600485016040919493926060820195825260208201520152565b0381885afa92831561020957600093610ab5575b506040518781526001600160a01b03828116600483015285166024820152908882604481895afa8015610209578992600091610a82575b5090816100ff6108fb93151561100c565b60405188815260048101959095526024850191909152604484015282606481875afa958615610209578792600097610a4d575b506040519081526001600160a01b0380851660048301529091166024820152908180604481015b0381865afa90811561020957600091610a20575b5080156109e6578593929161097d91611061565b60405193845260048401959095526024830152604482019390935291829060649082905afa908115610209576000916109b95750604051908152f35b90508181813d83116109df575b6109d08183610b75565b810103126101fd5751826101ce565b503d6109c6565b60405162461bcd60e51b8152600481018790526012602482015271141bdbdb0810cb51081b9bdd08199bdd5b9960721b6044820152606490fd5b90508581813d8311610a46575b610a378183610b75565b810103126101fd575186610969565b503d610a2d565b838193949298503d8311610a7b575b610a668183610b75565b810103126101fd57519486919061095561092e565b503d610a5c565b8381939492503d8311610aae575b610a9a8183610b75565b810103126101fd57518891906108fb6108ea565b503d610a90565b9092508781813d8311610add575b610acd8183610b75565b810103126101fd575191886108b3565b503d610ac3565b8781989250949392943d8311610b16575b610aff8183610b75565b810103126101fd579451879591929061089f610856565b503d610af5565b600435906001600160a01b03821682036101fd57565b602435906001600160a01b03821682036101fd57565b604435906001600160a01b03821682036101fd57565b606435906001600160a01b03821682036101fd57565b90601f8019910116810190811067ffffffffffffffff821117610b9757604052565b634e487b7160e01b600052604160045260246000fd5b908160209103126101fd575180151581036101fd5790565b15610bcc57565b60405162461bcd60e51b8152602060048201526011602482015270151c985b9cd9995c925b8819985a5b1959607a1b6044820152606490fd5b15610c0c57565b60405162461bcd60e51b8152602060048201526012602482015271151c985b9cd9995c93dd5d0819985a5b195960721b6044820152606490fd5b6000805460408051632ef61c2160e01b81526001600160a01b0385811660048301529586166024820152909594929360209392831692908483604481875afa928315610db6578693610df5575b508215610dc057875163095ea7b360e01b81526001600160a01b0394909416600485015260248401879052811692848160448189885af1908115610db6578691610d99575b5015610d6457839291856084928154168951988995869463b33daea960e01b86526004860152602485015260448401528160648401525af1938415610d5957508193610d25575b50505090565b9091809350813d8311610d52575b610d3d8183610b75565b81010312610d4f575051388080610d1f565b80fd5b503d610d33565b51913d9150823e3d90fd5b865162461bcd60e51b815260048101859052600e60248201526d105c1c1c9bdd994819985a5b195960921b6044820152606490fd5b610db09150853d87116103e3576103d58183610b75565b38610cd8565b88513d88823e3d90fd5b875162461bcd60e51b815260048101869052600e60248201526d141bdbdb081b9bdd08199bdd5b9960921b6044820152606490fd5b9092508481813d8311610e21575b610e0d8183610b75565b81010312610e1d57519138610c93565b8580fd5b503d610e03565b6000805460408051632ef61c2160e01b81526001600160a01b0385811660048301529586166024820152909692946020949281169391928584604481885afa938415610f59578794610f98575b508315610f6357885163095ea7b360e01b81526001600160a01b039590951660048601526024850188905281169385816044818a895af1908115610f59578791610f3c575b5015610f07579185608492869594825416908a51998a96879563b33daea960e01b875260048701526024860152604485015260648401525af1938415610d5957508193610d255750505090565b875162461bcd60e51b815260048101869052600e60248201526d105c1c1c9bdd994819985a5b195960921b6044820152606490fd5b610f539150863d88116103e3576103d58183610b75565b38610eba565b89513d89823e3d90fd5b885162461bcd60e51b815260048101879052600e60248201526d141bdbdb081b9bdd08199bdd5b9960921b6044820152606490fd5b9093508581813d8311610fc4575b610fb08183610b75565b81010312610fc057519238610e75565b8680fd5b503d610fa6565b15610fd257565b60405162461bcd60e51b8152602060048201526012602482015271141bdbdb08104b50881b9bdd08199bdd5b9960721b6044820152606490fd5b1561101357565b60405162461bcd60e51b8152602060048201526012602482015271141bdbdb08108b50c81b9bdd08199bdd5b9960721b6044820152606490fd5b51906001600160a01b03821682036101fd57565b60018060a01b039160009260a08185541693602460405180968193632f380b3560e01b835260048301525afa93841561110f5780809481966110b1575b50509181169116036110ad5791565b9091565b945094505060a0833d8211611107575b816110ce60a09383610b75565b8101031261110357806110e08461104d565b936110ed6020820161104d565b506060604082015191015194909495909161109e565b8380fd5b3d91506110c1565b604051903d90823e3d90fdfea26469706673582212209154b21ecd191c628efdea193d295212699ac78fe48f8a57c39b53246cc043a964736f6c63430008140033","opcodes":"PUSH1 0x80 CALLVALUE PUSH2 0xB6 JUMPI PUSH1 0x1F PUSH2 0x1223 CODESIZE DUP2 SWAP1 SUB SWAP2 DUP3 ADD PUSH1 0x1F NOT AND DUP4 ADD SWAP2 PUSH1 0x1 PUSH1 0x1 PUSH1 0x40 SHL SUB DUP4 GT DUP5 DUP5 LT OR PUSH2 0xBB JUMPI DUP1 DUP5 SWAP3 PUSH1 0x20 SWAP5 PUSH1 0x40 MSTORE DUP4 CODECOPY DUP2 ADD SUB SLT PUSH2 0xB6 JUMPI MLOAD PUSH1 0x1 PUSH1 0x1 PUSH1 0xA0 SHL SUB DUP2 AND SWAP1 DUP2 SWAP1 SUB PUSH2 0xB6 JUMPI DUP1 ISZERO PUSH2 0x82 JUMPI PUSH1 0x1 DUP1 PUSH1 0xA0 SHL SUB NOT SWAP1 DUP2 PUSH1 0x0 SLOAD AND OR PUSH1 0x0 SSTORE CALLER SWAP1 PUSH1 0x1 SLOAD AND OR PUSH1 0x1 SSTORE PUSH1 0x40 MLOAD PUSH2 0x1151 SWAP1 DUP2 PUSH2 0xD2 DUP3 CODECOPY RETURN JUMPDEST PUSH1 0x40 MLOAD PUSH3 0x461BCD PUSH1 0xE5 SHL DUP2 MSTORE PUSH1 0x20 PUSH1 0x4 DUP3 ADD MSTORE PUSH1 0xC PUSH1 0x24 DUP3 ADD MSTORE PUSH12 0x5A65726F2061646472657373 PUSH1 0xA0 SHL PUSH1 0x44 DUP3 ADD MSTORE PUSH1 0x64 SWAP1 REVERT JUMPDEST PUSH1 0x0 DUP1 REVERT JUMPDEST PUSH4 0x4E487B71 PUSH1 0xE0 SHL PUSH1 0x0 MSTORE PUSH1 0x41 PUSH1 0x4 MSTORE PUSH1 0x24 PUSH1 0x0 REVERT INVALID PUSH1 0x80 DUP1 PUSH1 0x40 MSTORE PUSH1 0x4 CALLDATASIZE LT ISZERO PUSH2 0x13 JUMPI PUSH1 0x0 DUP1 REVERT JUMPDEST PUSH1 0x0 CALLDATALOAD PUSH1 0xE0 SHR SWAP1 DUP2 PUSH4 0x1E899FEC EQ PUSH2 0x7DA JUMPI POP DUP1 PUSH4 0x1F28AD42 EQ PUSH2 0x726 JUMPI DUP1 PUSH4 0x226DB57E EQ PUSH2 0x5B0 JUMPI DUP1 PUSH4 0x5B0F9449 EQ PUSH2 0x41B JUMPI DUP1 PUSH4 0x61B0A56E EQ PUSH2 0x300 JUMPI DUP1 PUSH4 0x88D52EF7 EQ PUSH2 0x2D7 JUMPI DUP1 PUSH4 0x8DA5CB5B EQ PUSH2 0x2AE JUMPI PUSH4 0x913E5859 EQ PUSH2 0x77 JUMPI PUSH1 0x0 DUP1 REVERT JUMPDEST CALLVALUE PUSH2 0x1FD JUMPI PUSH1 0x80 CALLDATASIZE PUSH1 0x3 NOT ADD SLT PUSH2 0x1FD JUMPI PUSH2 0x90 PUSH2 0xB1D JUMP JUMPDEST PUSH2 0x98 PUSH2 0xB33 JUMP JUMPDEST PUSH2 0xA0 PUSH2 0xB49 JUMP JUMPDEST PUSH1 0x0 SLOAD PUSH1 0x40 MLOAD PUSH4 0x2EF61C21 PUSH1 0xE0 SHL DUP1 DUP3 MSTORE PUSH1 0x1 PUSH1 0x1 PUSH1 0xA0 SHL SUB DUP7 DUP2 AND PUSH1 0x4 DUP5 ADD MSTORE DUP6 DUP2 AND PUSH1 0x24 DUP5 ADD MSTORE PUSH1 0x20 SWAP7 SWAP2 SWAP6 SWAP3 SWAP4 AND SWAP2 SWAP1 DUP7 DUP5 PUSH1 0x44 DUP2 DUP7 GAS STATICCALL DUP1 ISZERO PUSH2 0x209 JUMPI DUP8 SWAP5 PUSH1 0x0 SWAP2 PUSH2 0x27B JUMPI JUMPDEST POP PUSH2 0x137 SWAP2 DUP2 PUSH2 0xFF PUSH2 0x104 SWAP4 ISZERO ISZERO PUSH2 0xFCB JUMP JUMPDEST PUSH2 0x1061 JUMP JUMPDEST PUSH1 0x40 SWAP6 SWAP2 SWAP6 MLOAD DUP1 SWAP4 DUP2 SWAP3 PUSH4 0x1535435 PUSH1 0xE2 SHL SWAP9 DUP10 DUP5 MSTORE PUSH1 0x64 CALLDATALOAD PUSH1 0x4 DUP6 ADD PUSH1 0x40 SWAP2 SWAP5 SWAP4 SWAP3 PUSH1 0x60 DUP3 ADD SWAP6 DUP3 MSTORE PUSH1 0x20 DUP3 ADD MSTORE ADD MSTORE JUMP JUMPDEST SUB DUP2 DUP7 GAS STATICCALL SWAP5 DUP6 ISZERO PUSH2 0x209 JUMPI DUP8 SWAP2 PUSH1 0x0 SWAP7 PUSH2 0x248 JUMPI JUMPDEST POP PUSH1 0x40 MLOAD SWAP7 DUP8 MSTORE PUSH1 0x1 PUSH1 0x1 PUSH1 0xA0 SHL SUB DUP1 DUP5 AND PUSH1 0x4 DUP10 ADD MSTORE AND PUSH1 0x24 DUP8 ADD MSTORE SWAP4 SWAP5 SWAP4 DUP5 DUP1 PUSH1 0x44 DUP2 ADD JUMPDEST SUB DUP2 DUP6 GAS STATICCALL DUP1 ISZERO PUSH2 0x209 JUMPI DUP7 SWAP5 PUSH1 0x0 SWAP2 PUSH2 0x215 JUMPI JUMPDEST POP SWAP1 DUP2 PUSH2 0xFF PUSH2 0x19A SWAP4 ISZERO ISZERO PUSH2 0x100C JUMP JUMPDEST PUSH1 0x40 MLOAD SWAP4 DUP5 MSTORE PUSH1 0x4 DUP5 ADD SWAP6 SWAP1 SWAP6 MSTORE PUSH1 0x24 DUP4 ADD MSTORE PUSH1 0x44 DUP3 ADD SWAP4 SWAP1 SWAP4 MSTORE SWAP2 DUP3 SWAP1 PUSH1 0x64 SWAP1 DUP3 SWAP1 GAS STATICCALL SWAP1 DUP2 ISZERO PUSH2 0x209 JUMPI PUSH1 0x0 SWAP2 PUSH2 0x1D7 JUMPI JUMPDEST POP PUSH1 0x40 MLOAD SWAP1 DUP2 MSTORE RETURN JUMPDEST SWAP1 POP DUP2 DUP2 DUP2 RETURNDATASIZE DUP4 GT PUSH2 0x202 JUMPI JUMPDEST PUSH2 0x1EE DUP2 DUP4 PUSH2 0xB75 JUMP JUMPDEST DUP2 ADD SUB SLT PUSH2 0x1FD JUMPI MLOAD CODESIZE PUSH2 0x1CE JUMP JUMPDEST PUSH1 0x0 DUP1 REVERT JUMPDEST POP RETURNDATASIZE PUSH2 0x1E4 JUMP JUMPDEST PUSH1 0x40 MLOAD RETURNDATASIZE PUSH1 0x0 DUP3 RETURNDATACOPY RETURNDATASIZE SWAP1 REVERT JUMPDEST DUP6 DUP2 SWAP4 SWAP7 SWAP3 POP RETURNDATASIZE DUP4 GT PUSH2 0x241 JUMPI JUMPDEST PUSH2 0x22D DUP2 DUP4 PUSH2 0xB75 JUMP JUMPDEST DUP2 ADD SUB SLT PUSH2 0x1FD JUMPI MLOAD DUP6 SWAP4 SWAP1 PUSH2 0x19A PUSH2 0x189 JUMP JUMPDEST POP RETURNDATASIZE PUSH2 0x223 JUMP JUMPDEST DUP3 DUP2 SWAP4 SWAP3 SWAP8 POP RETURNDATASIZE DUP4 GT PUSH2 0x274 JUMPI JUMPDEST PUSH2 0x260 DUP2 DUP4 PUSH2 0xB75 JUMP JUMPDEST DUP2 ADD SUB SLT PUSH2 0x1FD JUMPI MLOAD SWAP4 DUP7 SWAP1 PUSH2 0x174 PUSH2 0x14D JUMP JUMPDEST POP RETURNDATASIZE PUSH2 0x256 JUMP JUMPDEST DUP6 DUP2 SWAP7 SWAP3 POP RETURNDATASIZE DUP4 GT PUSH2 0x2A7 JUMPI JUMPDEST PUSH2 0x292 DUP2 DUP4 PUSH2 0xB75 JUMP JUMPDEST DUP2 ADD SUB SLT PUSH2 0x1FD JUMPI SWAP3 MLOAD DUP7 SWAP4 SWAP1 PUSH2 0x137 PUSH2 0xEB JUMP JUMPDEST POP RETURNDATASIZE PUSH2 0x288 JUMP JUMPDEST CALLVALUE PUSH2 0x1FD JUMPI PUSH1 0x0 CALLDATASIZE PUSH1 0x3 NOT ADD SLT PUSH2 0x1FD JUMPI PUSH1 0x1 SLOAD PUSH1 0x40 MLOAD PUSH1 0x1 PUSH1 0x1 PUSH1 0xA0 SHL SUB SWAP1 SWAP2 AND DUP2 MSTORE PUSH1 0x20 SWAP1 RETURN JUMPDEST CALLVALUE PUSH2 0x1FD JUMPI PUSH1 0x0 CALLDATASIZE PUSH1 0x3 NOT ADD SLT PUSH2 0x1FD JUMPI PUSH1 0x0 SLOAD PUSH1 0x40 MLOAD PUSH1 0x1 PUSH1 0x1 PUSH1 0xA0 SHL SUB SWAP1 SWAP2 AND DUP2 MSTORE PUSH1 0x20 SWAP1 RETURN JUMPDEST CALLVALUE PUSH2 0x1FD JUMPI PUSH1 0x60 CALLDATASIZE PUSH1 0x3 NOT ADD SLT PUSH2 0x1FD JUMPI PUSH2 0x319 PUSH2 0xB1D JUMP JUMPDEST PUSH2 0x321 PUSH2 0xB49 JUMP JUMPDEST PUSH1 0x1 SLOAD PUSH1 0x1 PUSH1 0x1 PUSH1 0xA0 SHL SUB SWAP3 SWAP2 SWAP1 DUP4 AND CALLER SUB PUSH2 0x3EA JUMPI PUSH1 0x40 MLOAD PUSH4 0xA9059CBB PUSH1 0xE0 SHL DUP2 MSTORE PUSH1 0x1 PUSH1 0x1 PUSH1 0xA0 SHL SUB SWAP2 SWAP1 SWAP2 AND PUSH1 0x4 DUP3 ADD MSTORE PUSH1 0x24 DUP1 CALLDATALOAD SWAP1 DUP3 ADD MSTORE SWAP2 PUSH1 0x20 SWAP2 DUP4 SWAP2 PUSH1 0x44 SWAP2 DUP4 SWAP2 PUSH1 0x0 SWAP2 AND GAS CALL SWAP1 DUP2 ISZERO PUSH2 0x209 JUMPI PUSH1 0x0 SWAP2 PUSH2 0x3BC JUMPI JUMPDEST POP ISZERO PUSH2 0x385 JUMPI STOP JUMPDEST PUSH1 0x40 MLOAD PUSH3 0x461BCD PUSH1 0xE5 SHL DUP2 MSTORE PUSH1 0x20 PUSH1 0x4 DUP3 ADD MSTORE PUSH1 0xF PUSH1 0x24 DUP3 ADD MSTORE PUSH15 0x151C985B9CD9995C8819985A5B1959 PUSH1 0x8A SHL PUSH1 0x44 DUP3 ADD MSTORE PUSH1 0x64 SWAP1 REVERT JUMPDEST PUSH2 0x3DD SWAP2 POP PUSH1 0x20 RETURNDATASIZE DUP2 GT PUSH2 0x3E3 JUMPI JUMPDEST PUSH2 0x3D5 DUP2 DUP4 PUSH2 0xB75 JUMP JUMPDEST DUP2 ADD SWAP1 PUSH2 0xBAD JUMP JUMPDEST DUP2 PUSH2 0x37D JUMP JUMPDEST POP RETURNDATASIZE PUSH2 0x3CB JUMP JUMPDEST PUSH1 0x40 MLOAD PUSH3 0x461BCD PUSH1 0xE5 SHL DUP2 MSTORE PUSH1 0x20 PUSH1 0x4 DUP3 ADD MSTORE PUSH1 0x9 PUSH1 0x24 DUP3 ADD MSTORE PUSH9 0x2737BA1037BBB732B9 PUSH1 0xB9 SHL PUSH1 0x44 DUP3 ADD MSTORE PUSH1 0x64 SWAP1 REVERT JUMPDEST CALLVALUE PUSH2 0x1FD JUMPI PUSH1 0xC0 CALLDATASIZE PUSH1 0x3 NOT ADD SLT PUSH2 0x1FD JUMPI PUSH2 0x434 PUSH2 0xB1D JUMP JUMPDEST PUSH2 0x43C PUSH2 0xB33 JUMP JUMPDEST SWAP1 PUSH2 0x445 PUSH2 0xB49 JUMP JUMPDEST PUSH1 0xA4 CALLDATALOAD SWAP3 PUSH1 0x1 PUSH1 0x1 PUSH1 0xA0 SHL SUB SWAP3 SWAP2 PUSH1 0x64 CALLDATALOAD SWAP1 DUP5 DUP7 AND DUP7 SUB PUSH2 0x1FD JUMPI PUSH1 0x40 MLOAD PUSH4 0x23B872DD PUSH1 0xE0 SHL DUP2 MSTORE CALLER PUSH1 0x4 DUP3 ADD MSTORE ADDRESS PUSH1 0x24 DUP3 ADD MSTORE PUSH1 0x44 DUP2 ADD DUP4 SWAP1 MSTORE PUSH1 0x20 SWAP7 DUP8 DUP3 PUSH1 0x64 DUP2 PUSH1 0x0 DUP11 DUP13 AND GAS CALL DUP1 ISZERO PUSH2 0x209 JUMPI PUSH2 0x4FE SWAP6 PUSH2 0x4B0 PUSH2 0x4C6 SWAP3 DUP12 SWAP6 PUSH1 0x0 SWAP2 PUSH2 0x593 JUMPI JUMPDEST POP PUSH2 0xBC5 JUMP JUMPDEST PUSH1 0x84 CALLDATALOAD SWAP1 DUP6 PUSH2 0x4C0 DUP9 DUP4 DUP13 PUSH2 0xC46 JUMP JUMPDEST SWAP2 PUSH2 0xE28 JUMP JUMPDEST PUSH1 0x40 MLOAD PUSH4 0xA9059CBB PUSH1 0xE0 SHL DUP2 MSTORE PUSH1 0x1 PUSH1 0x1 PUSH1 0xA0 SHL SUB SWAP1 SWAP3 AND PUSH1 0x4 DUP4 ADD MSTORE PUSH1 0x24 DUP3 ADD DUP2 SWAP1 MSTORE SWAP7 SWAP1 SWAP5 DUP6 SWAP2 SWAP1 DUP3 SWAP1 PUSH1 0x0 SWAP1 DUP3 SWAP1 PUSH1 0x44 DUP3 ADD SWAP1 JUMP JUMPDEST SUB SWAP3 DUP7 AND GAS CALL SWAP3 DUP4 ISZERO PUSH2 0x209 JUMPI PUSH32 0x764F0DC063C06F32D89A3F3AF80C0DB4BE8A090901F589A478B447E0A51F09F1 SWAP4 PUSH2 0x53F SWAP2 PUSH1 0x0 SWAP2 PUSH2 0x576 JUMPI JUMPDEST POP PUSH2 0xC05 JUMP JUMPDEST PUSH1 0x40 DUP1 MLOAD PUSH1 0x1 PUSH1 0x1 PUSH1 0xA0 SHL SUB SWAP6 DUP7 AND DUP2 MSTORE SWAP5 SWAP1 SWAP2 AND PUSH1 0x20 DUP6 ADD MSTORE DUP4 ADD MSTORE PUSH1 0x60 DUP3 ADD DUP4 SWAP1 MSTORE CALLER SWAP2 DUP1 PUSH1 0x80 DUP2 ADD JUMPDEST SUB SWAP1 LOG2 PUSH1 0x40 MLOAD SWAP1 DUP2 MSTORE RETURN JUMPDEST PUSH2 0x58D SWAP2 POP DUP9 RETURNDATASIZE DUP11 GT PUSH2 0x3E3 JUMPI PUSH2 0x3D5 DUP2 DUP4 PUSH2 0xB75 JUMP JUMPDEST DUP9 PUSH2 0x539 JUMP JUMPDEST PUSH2 0x5AA SWAP2 POP DUP7 RETURNDATASIZE DUP9 GT PUSH2 0x3E3 JUMPI PUSH2 0x3D5 DUP2 DUP4 PUSH2 0xB75 JUMP JUMPDEST DUP13 PUSH2 0x4AA JUMP JUMPDEST CALLVALUE PUSH2 0x1FD JUMPI PUSH1 0xE0 CALLDATASIZE PUSH1 0x3 NOT ADD SLT PUSH2 0x1FD JUMPI PUSH2 0x5C9 PUSH2 0xB1D JUMP JUMPDEST PUSH2 0x5D1 PUSH2 0xB33 JUMP JUMPDEST PUSH2 0x5D9 PUSH2 0xB49 JUMP JUMPDEST PUSH2 0x5E1 PUSH2 0xB5F JUMP JUMPDEST PUSH1 0x1 PUSH1 0x1 PUSH1 0xA0 SHL SUB SWAP3 SWAP1 SWAP2 SWAP1 PUSH1 0xC4 CALLDATALOAD DUP1 DUP6 AND SWAP1 SUB PUSH2 0x1FD JUMPI PUSH1 0x40 MLOAD PUSH4 0x23B872DD PUSH1 0xE0 SHL DUP2 MSTORE CALLER PUSH1 0x4 DUP3 ADD MSTORE ADDRESS PUSH1 0x24 DUP3 ADD MSTORE PUSH1 0x84 CALLDATALOAD PUSH1 0x44 DUP3 ADD MSTORE SWAP2 PUSH1 0x20 DUP4 PUSH1 0x64 DUP2 PUSH1 0x0 DUP11 DUP11 AND GAS CALL SWAP3 DUP4 ISZERO PUSH2 0x209 JUMPI PUSH2 0x660 SWAP4 PUSH2 0x644 SWAP2 PUSH1 0x0 SWAP2 PUSH2 0x707 JUMPI POP PUSH2 0xBC5 JUMP JUMPDEST DUP4 PUSH2 0x4C0 PUSH1 0xA4 CALLDATALOAD SWAP4 DUP4 PUSH2 0x65A PUSH1 0x84 CALLDATALOAD DUP4 DUP13 PUSH2 0xC46 JUMP JUMPDEST SWAP2 PUSH2 0xC46 JUMP JUMPDEST PUSH1 0x40 MLOAD PUSH4 0xA9059CBB PUSH1 0xE0 SHL DUP2 MSTORE PUSH1 0xC4 CALLDATALOAD PUSH1 0x1 PUSH1 0x1 PUSH1 0xA0 SHL SUB AND PUSH1 0x4 DUP3 ADD MSTORE PUSH1 0x24 DUP2 ADD DUP3 SWAP1 MSTORE SWAP1 SWAP3 PUSH1 0x20 SWAP1 DUP3 SWAP1 PUSH1 0x44 SWAP1 DUP3 SWAP1 PUSH1 0x0 SWAP1 DUP8 AND GAS CALL DUP1 ISZERO PUSH2 0x209 JUMPI PUSH1 0x20 SWAP5 PUSH2 0x6D5 DUP6 SWAP3 PUSH32 0x764F0DC063C06F32D89A3F3AF80C0DB4BE8A090901F589A478B447E0A51F09F1 SWAP5 PUSH1 0x0 SWAP2 PUSH2 0x576 JUMPI POP PUSH2 0xC05 JUMP JUMPDEST PUSH1 0x40 DUP1 MLOAD PUSH1 0x1 PUSH1 0x1 PUSH1 0xA0 SHL SUB SWAP3 DUP4 AND DUP2 MSTORE SWAP5 SWAP1 SWAP2 AND PUSH1 0x20 DUP6 ADD MSTORE PUSH1 0x84 CALLDATALOAD SWAP1 DUP5 ADD MSTORE PUSH1 0x60 DUP4 ADD MSTORE CALLER SWAP2 DUP1 PUSH1 0x80 DUP2 ADD PUSH2 0x56B JUMP JUMPDEST PUSH2 0x720 SWAP2 POP PUSH1 0x20 RETURNDATASIZE PUSH1 0x20 GT PUSH2 0x3E3 JUMPI PUSH2 0x3D5 DUP2 DUP4 PUSH2 0xB75 JUMP JUMPDEST DUP9 PUSH2 0x4AA JUMP JUMPDEST CALLVALUE PUSH2 0x1FD JUMPI PUSH1 0xA0 CALLDATASIZE PUSH1 0x3 NOT ADD SLT PUSH2 0x1FD JUMPI PUSH2 0x73F PUSH2 0xB1D JUMP JUMPDEST PUSH2 0x747 PUSH2 0xB33 JUMP JUMPDEST PUSH1 0x84 CALLDATALOAD SWAP2 PUSH1 0x1 PUSH1 0x1 PUSH1 0xA0 SHL SUB SWAP2 PUSH1 0x44 CALLDATALOAD DUP4 DUP6 AND DUP6 SUB PUSH2 0x1FD JUMPI PUSH1 0x40 MLOAD PUSH4 0x23B872DD PUSH1 0xE0 SHL DUP2 MSTORE CALLER PUSH1 0x4 DUP3 ADD MSTORE ADDRESS PUSH1 0x24 DUP3 ADD MSTORE PUSH1 0x44 DUP2 ADD DUP3 SWAP1 MSTORE PUSH1 0x20 SWAP6 SWAP1 SWAP3 SWAP1 DUP7 DUP5 PUSH1 0x64 DUP2 PUSH1 0x0 DUP10 DUP12 AND GAS CALL SWAP1 DUP2 ISZERO PUSH2 0x209 JUMPI PUSH2 0x7AF DUP9 SWAP3 PUSH2 0x4FE SWAP7 PUSH1 0x0 SWAP2 PUSH2 0x7BD JUMPI POP PUSH2 0xBC5 JUMP JUMPDEST PUSH2 0x4C6 PUSH1 0x64 CALLDATALOAD DUP6 DUP6 DUP10 PUSH2 0xE28 JUMP JUMPDEST PUSH2 0x7D4 SWAP2 POP DUP5 RETURNDATASIZE DUP7 GT PUSH2 0x3E3 JUMPI PUSH2 0x3D5 DUP2 DUP4 PUSH2 0xB75 JUMP JUMPDEST DUP11 PUSH2 0x4AA JUMP JUMPDEST CALLVALUE PUSH2 0x1FD JUMPI PUSH1 0xA0 CALLDATASIZE PUSH1 0x3 NOT ADD SLT PUSH2 0x1FD JUMPI PUSH2 0x7F3 PUSH2 0xB1D JUMP JUMPDEST SWAP1 PUSH2 0x7FC PUSH2 0xB33 JUMP JUMPDEST SWAP1 PUSH2 0x805 PUSH2 0xB49 JUMP JUMPDEST PUSH2 0x80D PUSH2 0xB5F JUMP JUMPDEST PUSH1 0x0 SLOAD PUSH4 0x2EF61C21 PUSH1 0xE0 SHL DUP1 DUP6 MSTORE PUSH1 0x1 PUSH1 0x1 PUSH1 0xA0 SHL SUB DUP8 DUP2 AND PUSH1 0x4 DUP8 ADD MSTORE DUP7 DUP2 AND PUSH1 0x24 DUP8 ADD MSTORE PUSH1 0x20 SWAP8 SWAP2 SWAP7 SWAP3 AND SWAP4 SWAP3 SWAP2 SWAP1 DUP8 DUP7 PUSH1 0x44 DUP2 DUP9 GAS STATICCALL DUP1 ISZERO PUSH2 0x209 JUMPI DUP9 SWAP7 PUSH1 0x0 SWAP2 PUSH2 0xAE4 JUMPI JUMPDEST POP PUSH2 0x89F SWAP4 SWAP3 SWAP2 DUP2 PUSH2 0xFF PUSH2 0x86C SWAP4 ISZERO ISZERO PUSH2 0xFCB JUMP JUMPDEST PUSH1 0x40 SWAP8 SWAP2 SWAP8 MLOAD DUP1 SWAP6 DUP2 SWAP3 PUSH4 0x1535435 PUSH1 0xE2 SHL SWAP11 DUP12 DUP5 MSTORE PUSH1 0x84 CALLDATALOAD PUSH1 0x4 DUP6 ADD PUSH1 0x40 SWAP2 SWAP5 SWAP4 SWAP3 PUSH1 0x60 DUP3 ADD SWAP6 DUP3 MSTORE PUSH1 0x20 DUP3 ADD MSTORE ADD MSTORE JUMP JUMPDEST SUB DUP2 DUP9 GAS STATICCALL SWAP3 DUP4 ISZERO PUSH2 0x209 JUMPI PUSH1 0x0 SWAP4 PUSH2 0xAB5 JUMPI JUMPDEST POP PUSH1 0x40 MLOAD DUP8 DUP2 MSTORE PUSH1 0x1 PUSH1 0x1 PUSH1 0xA0 SHL SUB DUP3 DUP2 AND PUSH1 0x4 DUP4 ADD MSTORE DUP6 AND PUSH1 0x24 DUP3 ADD MSTORE SWAP1 DUP9 DUP3 PUSH1 0x44 DUP2 DUP10 GAS STATICCALL DUP1 ISZERO PUSH2 0x209 JUMPI DUP10 SWAP3 PUSH1 0x0 SWAP2 PUSH2 0xA82 JUMPI JUMPDEST POP SWAP1 DUP2 PUSH2 0xFF PUSH2 0x8FB SWAP4 ISZERO ISZERO PUSH2 0x100C JUMP JUMPDEST PUSH1 0x40 MLOAD DUP9 DUP2 MSTORE PUSH1 0x4 DUP2 ADD SWAP6 SWAP1 SWAP6 MSTORE PUSH1 0x24 DUP6 ADD SWAP2 SWAP1 SWAP2 MSTORE PUSH1 0x44 DUP5 ADD MSTORE DUP3 PUSH1 0x64 DUP2 DUP8 GAS STATICCALL SWAP6 DUP7 ISZERO PUSH2 0x209 JUMPI DUP8 SWAP3 PUSH1 0x0 SWAP8 PUSH2 0xA4D JUMPI JUMPDEST POP PUSH1 0x40 MLOAD SWAP1 DUP2 MSTORE PUSH1 0x1 PUSH1 0x1 PUSH1 0xA0 SHL SUB DUP1 DUP6 AND PUSH1 0x4 DUP4 ADD MSTORE SWAP1 SWAP2 AND PUSH1 0x24 DUP3 ADD MSTORE SWAP1 DUP2 DUP1 PUSH1 0x44 DUP2 ADD JUMPDEST SUB DUP2 DUP7 GAS STATICCALL SWAP1 DUP2 ISZERO PUSH2 0x209 JUMPI PUSH1 0x0 SWAP2 PUSH2 0xA20 JUMPI JUMPDEST POP DUP1 ISZERO PUSH2 0x9E6 JUMPI DUP6 SWAP4 SWAP3 SWAP2 PUSH2 0x97D SWAP2 PUSH2 0x1061 JUMP JUMPDEST PUSH1 0x40 MLOAD SWAP4 DUP5 MSTORE PUSH1 0x4 DUP5 ADD SWAP6 SWAP1 SWAP6 MSTORE PUSH1 0x24 DUP4 ADD MSTORE PUSH1 0x44 DUP3 ADD SWAP4 SWAP1 SWAP4 MSTORE SWAP2 DUP3 SWAP1 PUSH1 0x64 SWAP1 DUP3 SWAP1 GAS STATICCALL SWAP1 DUP2 ISZERO PUSH2 0x209 JUMPI PUSH1 0x0 SWAP2 PUSH2 0x9B9 JUMPI POP PUSH1 0x40 MLOAD SWAP1 DUP2 MSTORE RETURN JUMPDEST SWAP1 POP DUP2 DUP2 DUP2 RETURNDATASIZE DUP4 GT PUSH2 0x9DF JUMPI JUMPDEST PUSH2 0x9D0 DUP2 DUP4 PUSH2 0xB75 JUMP JUMPDEST DUP2 ADD SUB SLT PUSH2 0x1FD JUMPI MLOAD DUP3 PUSH2 0x1CE JUMP JUMPDEST POP RETURNDATASIZE PUSH2 0x9C6 JUMP JUMPDEST PUSH1 0x40 MLOAD PUSH3 0x461BCD PUSH1 0xE5 SHL DUP2 MSTORE PUSH1 0x4 DUP2 ADD DUP8 SWAP1 MSTORE PUSH1 0x12 PUSH1 0x24 DUP3 ADD MSTORE PUSH18 0x141BDBDB0810CB51081B9BDD08199BDD5B99 PUSH1 0x72 SHL PUSH1 0x44 DUP3 ADD MSTORE PUSH1 0x64 SWAP1 REVERT JUMPDEST SWAP1 POP DUP6 DUP2 DUP2 RETURNDATASIZE DUP4 GT PUSH2 0xA46 JUMPI JUMPDEST PUSH2 0xA37 DUP2 DUP4 PUSH2 0xB75 JUMP JUMPDEST DUP2 ADD SUB SLT PUSH2 0x1FD JUMPI MLOAD DUP7 PUSH2 0x969 JUMP JUMPDEST POP RETURNDATASIZE PUSH2 0xA2D JUMP JUMPDEST DUP4 DUP2 SWAP4 SWAP5 SWAP3 SWAP9 POP RETURNDATASIZE DUP4 GT PUSH2 0xA7B JUMPI JUMPDEST PUSH2 0xA66 DUP2 DUP4 PUSH2 0xB75 JUMP JUMPDEST DUP2 ADD SUB SLT PUSH2 0x1FD JUMPI MLOAD SWAP5 DUP7 SWAP2 SWAP1 PUSH2 0x955 PUSH2 0x92E JUMP JUMPDEST POP RETURNDATASIZE PUSH2 0xA5C JUMP JUMPDEST DUP4 DUP2 SWAP4 SWAP5 SWAP3 POP RETURNDATASIZE DUP4 GT PUSH2 0xAAE JUMPI JUMPDEST PUSH2 0xA9A DUP2 DUP4 PUSH2 0xB75 JUMP JUMPDEST DUP2 ADD SUB SLT PUSH2 0x1FD JUMPI MLOAD DUP9 SWAP2 SWAP1 PUSH2 0x8FB PUSH2 0x8EA JUMP JUMPDEST POP RETURNDATASIZE PUSH2 0xA90 JUMP JUMPDEST SWAP1 SWAP3 POP DUP8 DUP2 DUP2 RETURNDATASIZE DUP4 GT PUSH2 0xADD JUMPI JUMPDEST PUSH2 0xACD DUP2 DUP4 PUSH2 0xB75 JUMP JUMPDEST DUP2 ADD SUB SLT PUSH2 0x1FD JUMPI MLOAD SWAP2 DUP9 PUSH2 0x8B3 JUMP JUMPDEST POP RETURNDATASIZE PUSH2 0xAC3 JUMP JUMPDEST DUP8 DUP2 SWAP9 SWAP3 POP SWAP5 SWAP4 SWAP3 SWAP5 RETURNDATASIZE DUP4 GT PUSH2 0xB16 JUMPI JUMPDEST PUSH2 0xAFF DUP2 DUP4 PUSH2 0xB75 JUMP JUMPDEST DUP2 ADD SUB SLT PUSH2 0x1FD JUMPI SWAP5 MLOAD DUP8 SWAP6 SWAP2 SWAP3 SWAP1 PUSH2 0x89F PUSH2 0x856 JUMP JUMPDEST POP RETURNDATASIZE PUSH2 0xAF5 JUMP JUMPDEST PUSH1 0x4 CALLDATALOAD SWAP1 PUSH1 0x1 PUSH1 0x1 PUSH1 0xA0 SHL SUB DUP3 AND DUP3 SUB PUSH2 0x1FD JUMPI JUMP JUMPDEST PUSH1 0x24 CALLDATALOAD SWAP1 PUSH1 0x1 PUSH1 0x1 PUSH1 0xA0 SHL SUB DUP3 AND DUP3 SUB PUSH2 0x1FD JUMPI JUMP JUMPDEST PUSH1 0x44 CALLDATALOAD SWAP1 PUSH1 0x1 PUSH1 0x1 PUSH1 0xA0 SHL SUB DUP3 AND DUP3 SUB PUSH2 0x1FD JUMPI JUMP JUMPDEST PUSH1 0x64 CALLDATALOAD SWAP1 PUSH1 0x1 PUSH1 0x1 PUSH1 0xA0 SHL SUB DUP3 AND DUP3 SUB PUSH2 0x1FD JUMPI JUMP JUMPDEST SWAP1 PUSH1 0x1F DUP1 NOT SWAP2 ADD AND DUP2 ADD SWAP1 DUP2 LT PUSH8 0xFFFFFFFFFFFFFFFF DUP3 GT OR PUSH2 0xB97 JUMPI PUSH1 0x40 MSTORE JUMP JUMPDEST PUSH4 0x4E487B71 PUSH1 0xE0 SHL PUSH1 0x0 MSTORE PUSH1 0x41 PUSH1 0x4 MSTORE PUSH1 0x24 PUSH1 0x0 REVERT JUMPDEST SWAP1 DUP2 PUSH1 0x20 SWAP2 SUB SLT PUSH2 0x1FD JUMPI MLOAD DUP1 ISZERO ISZERO DUP2 SUB PUSH2 0x1FD JUMPI SWAP1 JUMP JUMPDEST ISZERO PUSH2 0xBCC JUMPI JUMP JUMPDEST PUSH1 0x40 MLOAD PUSH3 0x461BCD PUSH1 0xE5 SHL DUP2 MSTORE PUSH1 0x20 PUSH1 0x4 DUP3 ADD MSTORE PUSH1 0x11 PUSH1 0x24 DUP3 ADD MSTORE PUSH17 0x151C985B9CD9995C925B8819985A5B1959 PUSH1 0x7A SHL PUSH1 0x44 DUP3 ADD MSTORE PUSH1 0x64 SWAP1 REVERT JUMPDEST ISZERO PUSH2 0xC0C JUMPI JUMP JUMPDEST PUSH1 0x40 MLOAD PUSH3 0x461BCD PUSH1 0xE5 SHL DUP2 MSTORE PUSH1 0x20 PUSH1 0x4 DUP3 ADD MSTORE PUSH1 0x12 PUSH1 0x24 DUP3 ADD MSTORE PUSH18 0x151C985B9CD9995C93DD5D0819985A5B1959 PUSH1 0x72 SHL PUSH1 0x44 DUP3 ADD MSTORE PUSH1 0x64 SWAP1 REVERT JUMPDEST PUSH1 0x0 DUP1 SLOAD PUSH1 0x40 DUP1 MLOAD PUSH4 0x2EF61C21 PUSH1 0xE0 SHL DUP2 MSTORE PUSH1 0x1 PUSH1 0x1 PUSH1 0xA0 SHL SUB DUP6 DUP2 AND PUSH1 0x4 DUP4 ADD MSTORE SWAP6 DUP7 AND PUSH1 0x24 DUP3 ADD MSTORE SWAP1 SWAP6 SWAP5 SWAP3 SWAP4 PUSH1 0x20 SWAP4 SWAP3 DUP4 AND SWAP3 SWAP1 DUP5 DUP4 PUSH1 0x44 DUP2 DUP8 GAS STATICCALL SWAP3 DUP4 ISZERO PUSH2 0xDB6 JUMPI DUP7 SWAP4 PUSH2 0xDF5 JUMPI JUMPDEST POP DUP3 ISZERO PUSH2 0xDC0 JUMPI DUP8 MLOAD PUSH4 0x95EA7B3 PUSH1 0xE0 SHL DUP2 MSTORE PUSH1 0x1 PUSH1 0x1 PUSH1 0xA0 SHL SUB SWAP5 SWAP1 SWAP5 AND PUSH1 0x4 DUP6 ADD MSTORE PUSH1 0x24 DUP5 ADD DUP8 SWAP1 MSTORE DUP2 AND SWAP3 DUP5 DUP2 PUSH1 0x44 DUP2 DUP10 DUP9 GAS CALL SWAP1 DUP2 ISZERO PUSH2 0xDB6 JUMPI DUP7 SWAP2 PUSH2 0xD99 JUMPI JUMPDEST POP ISZERO PUSH2 0xD64 JUMPI DUP4 SWAP3 SWAP2 DUP6 PUSH1 0x84 SWAP3 DUP2 SLOAD AND DUP10 MLOAD SWAP9 DUP10 SWAP6 DUP7 SWAP5 PUSH4 0xB33DAEA9 PUSH1 0xE0 SHL DUP7 MSTORE PUSH1 0x4 DUP7 ADD MSTORE PUSH1 0x24 DUP6 ADD MSTORE PUSH1 0x44 DUP5 ADD MSTORE DUP2 PUSH1 0x64 DUP5 ADD MSTORE GAS CALL SWAP4 DUP5 ISZERO PUSH2 0xD59 JUMPI POP DUP2 SWAP4 PUSH2 0xD25 JUMPI JUMPDEST POP POP POP SWAP1 JUMP JUMPDEST SWAP1 SWAP2 DUP1 SWAP4 POP DUP2 RETURNDATASIZE DUP4 GT PUSH2 0xD52 JUMPI JUMPDEST PUSH2 0xD3D DUP2 DUP4 PUSH2 0xB75 JUMP JUMPDEST DUP2 ADD SUB SLT PUSH2 0xD4F JUMPI POP MLOAD CODESIZE DUP1 DUP1 PUSH2 0xD1F JUMP JUMPDEST DUP1 REVERT JUMPDEST POP RETURNDATASIZE PUSH2 0xD33 JUMP JUMPDEST MLOAD SWAP2 RETURNDATASIZE SWAP2 POP DUP3 RETURNDATACOPY RETURNDATASIZE SWAP1 REVERT JUMPDEST DUP7 MLOAD PUSH3 0x461BCD PUSH1 0xE5 SHL DUP2 MSTORE PUSH1 0x4 DUP2 ADD DUP6 SWAP1 MSTORE PUSH1 0xE PUSH1 0x24 DUP3 ADD MSTORE PUSH14 0x105C1C1C9BDD994819985A5B1959 PUSH1 0x92 SHL PUSH1 0x44 DUP3 ADD MSTORE PUSH1 0x64 SWAP1 REVERT JUMPDEST PUSH2 0xDB0 SWAP2 POP DUP6 RETURNDATASIZE DUP8 GT PUSH2 0x3E3 JUMPI PUSH2 0x3D5 DUP2 DUP4 PUSH2 0xB75 JUMP JUMPDEST CODESIZE PUSH2 0xCD8 JUMP JUMPDEST DUP9 MLOAD RETURNDATASIZE DUP9 DUP3 RETURNDATACOPY RETURNDATASIZE SWAP1 REVERT JUMPDEST DUP8 MLOAD PUSH3 0x461BCD PUSH1 0xE5 SHL DUP2 MSTORE PUSH1 0x4 DUP2 ADD DUP7 SWAP1 MSTORE PUSH1 0xE PUSH1 0x24 DUP3 ADD MSTORE PUSH14 0x141BDBDB081B9BDD08199BDD5B99 PUSH1 0x92 SHL PUSH1 0x44 DUP3 ADD MSTORE PUSH1 0x64 SWAP1 REVERT JUMPDEST SWAP1 SWAP3 POP DUP5 DUP2 DUP2 RETURNDATASIZE DUP4 GT PUSH2 0xE21 JUMPI JUMPDEST PUSH2 0xE0D DUP2 DUP4 PUSH2 0xB75 JUMP JUMPDEST DUP2 ADD SUB SLT PUSH2 0xE1D JUMPI MLOAD SWAP2 CODESIZE PUSH2 0xC93 JUMP JUMPDEST DUP6 DUP1 REVERT JUMPDEST POP RETURNDATASIZE PUSH2 0xE03 JUMP JUMPDEST PUSH1 0x0 DUP1 SLOAD PUSH1 0x40 DUP1 MLOAD PUSH4 0x2EF61C21 PUSH1 0xE0 SHL DUP2 MSTORE PUSH1 0x1 PUSH1 0x1 PUSH1 0xA0 SHL SUB DUP6 DUP2 AND PUSH1 0x4 DUP4 ADD MSTORE SWAP6 DUP7 AND PUSH1 0x24 DUP3 ADD MSTORE SWAP1 SWAP7 SWAP3 SWAP5 PUSH1 0x20 SWAP5 SWAP3 DUP2 AND SWAP4 SWAP2 SWAP3 DUP6 DUP5 PUSH1 0x44 DUP2 DUP9 GAS STATICCALL SWAP4 DUP5 ISZERO PUSH2 0xF59 JUMPI DUP8 SWAP5 PUSH2 0xF98 JUMPI JUMPDEST POP DUP4 ISZERO PUSH2 0xF63 JUMPI DUP9 MLOAD PUSH4 0x95EA7B3 PUSH1 0xE0 SHL DUP2 MSTORE PUSH1 0x1 PUSH1 0x1 PUSH1 0xA0 SHL SUB SWAP6 SWAP1 SWAP6 AND PUSH1 0x4 DUP7 ADD MSTORE PUSH1 0x24 DUP6 ADD DUP9 SWAP1 MSTORE DUP2 AND SWAP4 DUP6 DUP2 PUSH1 0x44 DUP2 DUP11 DUP10 GAS CALL SWAP1 DUP2 ISZERO PUSH2 0xF59 JUMPI DUP8 SWAP2 PUSH2 0xF3C JUMPI JUMPDEST POP ISZERO PUSH2 0xF07 JUMPI SWAP2 DUP6 PUSH1 0x84 SWAP3 DUP7 SWAP6 SWAP5 DUP3 SLOAD AND SWAP1 DUP11 MLOAD SWAP10 DUP11 SWAP7 DUP8 SWAP6 PUSH4 0xB33DAEA9 PUSH1 0xE0 SHL DUP8 MSTORE PUSH1 0x4 DUP8 ADD MSTORE PUSH1 0x24 DUP7 ADD MSTORE PUSH1 0x44 DUP6 ADD MSTORE PUSH1 0x64 DUP5 ADD MSTORE GAS CALL SWAP4 DUP5 ISZERO PUSH2 0xD59 JUMPI POP DUP2 SWAP4 PUSH2 0xD25 JUMPI POP POP POP SWAP1 JUMP JUMPDEST DUP8 MLOAD PUSH3 0x461BCD PUSH1 0xE5 SHL DUP2 MSTORE PUSH1 0x4 DUP2 ADD DUP7 SWAP1 MSTORE PUSH1 0xE PUSH1 0x24 DUP3 ADD MSTORE PUSH14 0x105C1C1C9BDD994819985A5B1959 PUSH1 0x92 SHL PUSH1 0x44 DUP3 ADD MSTORE PUSH1 0x64 SWAP1 REVERT JUMPDEST PUSH2 0xF53 SWAP2 POP DUP7 RETURNDATASIZE DUP9 GT PUSH2 0x3E3 JUMPI PUSH2 0x3D5 DUP2 DUP4 PUSH2 0xB75 JUMP JUMPDEST CODESIZE PUSH2 0xEBA JUMP JUMPDEST DUP10 MLOAD RETURNDATASIZE DUP10 DUP3 RETURNDATACOPY RETURNDATASIZE SWAP1 REVERT JUMPDEST DUP9 MLOAD PUSH3 0x461BCD PUSH1 0xE5 SHL DUP2 MSTORE PUSH1 0x4 DUP2 ADD DUP8 SWAP1 MSTORE PUSH1 0xE PUSH1 0x24 DUP3 ADD MSTORE PUSH14 0x141BDBDB081B9BDD08199BDD5B99 PUSH1 0x92 SHL PUSH1 0x44 DUP3 ADD MSTORE PUSH1 0x64 SWAP1 REVERT JUMPDEST SWAP1 SWAP4 POP DUP6 DUP2 DUP2 RETURNDATASIZE DUP4 GT PUSH2 0xFC4 JUMPI JUMPDEST PUSH2 0xFB0 DUP2 DUP4 PUSH2 0xB75 JUMP JUMPDEST DUP2 ADD SUB SLT PUSH2 0xFC0 JUMPI MLOAD SWAP3 CODESIZE PUSH2 0xE75 JUMP JUMPDEST DUP7 DUP1 REVERT JUMPDEST POP RETURNDATASIZE PUSH2 0xFA6 JUMP JUMPDEST ISZERO PUSH2 0xFD2 JUMPI JUMP JUMPDEST PUSH1 0x40 MLOAD PUSH3 0x461BCD PUSH1 0xE5 SHL DUP2 MSTORE PUSH1 0x20 PUSH1 0x4 DUP3 ADD MSTORE PUSH1 0x12 PUSH1 0x24 DUP3 ADD MSTORE PUSH18 0x141BDBDB08104B50881B9BDD08199BDD5B99 PUSH1 0x72 SHL PUSH1 0x44 DUP3 ADD MSTORE PUSH1 0x64 SWAP1 REVERT JUMPDEST ISZERO PUSH2 0x1013 JUMPI JUMP JUMPDEST PUSH1 0x40 MLOAD PUSH3 0x461BCD PUSH1 0xE5 SHL DUP2 MSTORE PUSH1 0x20 PUSH1 0x4 DUP3 ADD MSTORE PUSH1 0x12 PUSH1 0x24 DUP3 ADD MSTORE PUSH18 0x141BDBDB08108B50C81B9BDD08199BDD5B99 PUSH1 0x72 SHL PUSH1 0x44 DUP3 ADD MSTORE PUSH1 0x64 SWAP1 REVERT JUMPDEST MLOAD SWAP1 PUSH1 0x1 PUSH1 0x1 PUSH1 0xA0 SHL SUB DUP3 AND DUP3 SUB PUSH2 0x1FD JUMPI JUMP JUMPDEST PUSH1 0x1 DUP1 PUSH1 0xA0 SHL SUB SWAP2 PUSH1 0x0 SWAP3 PUSH1 0xA0 DUP2 DUP6 SLOAD AND SWAP4 PUSH1 0x24 PUSH1 0x40 MLOAD DUP1 SWAP7 DUP2 SWAP4 PUSH4 0x2F380B35 PUSH1 0xE0 SHL DUP4 MSTORE PUSH1 0x4 DUP4 ADD MSTORE GAS STATICCALL SWAP4 DUP5 ISZERO PUSH2 0x110F JUMPI DUP1 DUP1 SWAP5 DUP2 SWAP7 PUSH2 0x10B1 JUMPI JUMPDEST POP POP SWAP2 DUP2 AND SWAP2 AND SUB PUSH2 0x10AD JUMPI SWAP2 JUMP JUMPDEST SWAP1 SWAP2 JUMP JUMPDEST SWAP5 POP SWAP5 POP POP PUSH1 0xA0 DUP4 RETURNDATASIZE DUP3 GT PUSH2 0x1107 JUMPI JUMPDEST DUP2 PUSH2 0x10CE PUSH1 0xA0 SWAP4 DUP4 PUSH2 0xB75 JUMP JUMPDEST DUP2 ADD SUB SLT PUSH2 0x1103 JUMPI DUP1 PUSH2 0x10E0 DUP5 PUSH2 0x104D JUMP JUMPDEST SWAP4 PUSH2 0x10ED PUSH1 0x20 DUP3 ADD PUSH2 0x104D JUMP JUMPDEST POP PUSH1 0x60 PUSH1 0x40 DUP3 ADD MLOAD SWAP2 ADD MLOAD SWAP5 SWAP1 SWAP5 SWAP6 SWAP1 SWAP2 PUSH2 0x109E JUMP JUMPDEST DUP4 DUP1 REVERT JUMPDEST RETURNDATASIZE SWAP2 POP PUSH2 0x10C1 JUMP JUMPDEST PUSH1 0x40 MLOAD SWAP1 RETURNDATASIZE SWAP1 DUP3 RETURNDATACOPY RETURNDATASIZE SWAP1 REVERT INVALID LOG2 PUSH5 0x6970667358 0x22 SLT KECCAK256 SWAP2 SLOAD 0xB2 0x1E 0xCD NOT SHR PUSH3 0x8EFDEA NOT RETURNDATASIZE 0x29 MSTORE SLT PUSH10 0x9AC78FE48F8A57C39B53 0x24 PUSH13 0xC043A964736F6C634300081400 CALLER "},"methodIdentifiers":{"getAmountOutThreeHop(address,address,address,address,uint256)":"1e899fec","getAmountOutTwoHop(address,address,address,uint256)":"913e5859","owner()":"8da5cb5b","poolContract()":"88d52ef7","recoverTokens(address,uint256,address)":"61b0a56e","swapSingleHop(address,address,uint256,uint256,address)":"1f28ad42","swapThreeHop(address,address,address,address,uint256,uint256,address)":"226db57e","swapTwoHop(address,address,address,uint256,uint256,address)":"5b0f9449"}}}}}