{"contracts/MultiTokenLiquidityPools.sol":{"MultiTokenLiquidityPools":{"abi":[{"inputs":[],"stateMutability":"nonpayable","type":"constructor"},{"anonymous":false,"inputs":[{"indexed":true,"internalType":"uint256","name":"poolId","type":"uint256"},{"indexed":true,"internalType":"address","name":"provider","type":"address"},{"indexed":false,"internalType":"uint256","name":"amount0","type":"uint256"},{"indexed":false,"internalType":"uint256","name":"amount1","type":"uint256"},{"indexed":false,"internalType":"uint256","name":"lpTokens","type":"uint256"}],"name":"LiquidityAdded","type":"event"},{"anonymous":false,"inputs":[{"indexed":true,"internalType":"uint256","name":"poolId","type":"uint256"},{"indexed":true,"internalType":"address","name":"provider","type":"address"},{"indexed":false,"internalType":"uint256","name":"amount0","type":"uint256"},{"indexed":false,"internalType":"uint256","name":"amount1","type":"uint256"},{"indexed":false,"internalType":"uint256","name":"lpTokens","type":"uint256"}],"name":"LiquidityRemoved","type":"event"},{"anonymous":false,"inputs":[{"indexed":true,"internalType":"uint256","name":"poolId","type":"uint256"},{"indexed":false,"internalType":"address","name":"token0","type":"address"},{"indexed":false,"internalType":"address","name":"token1","type":"address"}],"name":"PoolCreated","type":"event"},{"anonymous":false,"inputs":[{"indexed":true,"internalType":"uint256","name":"poolId","type":"uint256"},{"indexed":true,"internalType":"address","name":"user","type":"address"},{"indexed":false,"internalType":"address","name":"tokenIn","type":"address"},{"indexed":false,"internalType":"uint256","name":"amountIn","type":"uint256"},{"indexed":false,"internalType":"uint256","name":"amountOut","type":"uint256"}],"name":"Swap","type":"event"},{"inputs":[],"name":"FEE_DENOMINATOR","outputs":[{"internalType":"uint256","name":"","type":"uint256"}],"stateMutability":"view","type":"function"},{"inputs":[],"name":"FEE_PERCENT","outputs":[{"internalType":"uint256","name":"","type":"uint256"}],"stateMutability":"view","type":"function"},{"inputs":[{"internalType":"uint256","name":"poolId","type":"uint256"},{"internalType":"uint256","name":"amount0Desired","type":"uint256"},{"internalType":"uint256","name":"amount1Desired","type":"uint256"},{"internalType":"uint256","name":"amount0Min","type":"uint256"},{"internalType":"uint256","name":"amount1Min","type":"uint256"}],"name":"addLiquidity","outputs":[{"internalType":"uint256","name":"amount0","type":"uint256"},{"internalType":"uint256","name":"amount1","type":"uint256"},{"internalType":"uint256","name":"lpTokens","type":"uint256"}],"stateMutability":"nonpayable","type":"function"},{"inputs":[{"internalType":"address","name":"token0","type":"address"},{"internalType":"address","name":"token1","type":"address"}],"name":"createPool","outputs":[{"internalType":"uint256","name":"poolId","type":"uint256"}],"stateMutability":"nonpayable","type":"function"},{"inputs":[{"internalType":"uint256","name":"amountIn","type":"uint256"},{"internalType":"uint256","name":"reserveIn","type":"uint256"},{"internalType":"uint256","name":"reserveOut","type":"uint256"}],"name":"getAmountOut","outputs":[{"internalType":"uint256","name":"amountOut","type":"uint256"}],"stateMutability":"pure","type":"function"},{"inputs":[{"internalType":"address","name":"token0","type":"address"},{"internalType":"address","name":"token1","type":"address"}],"name":"getPoolId","outputs":[{"internalType":"uint256","name":"","type":"uint256"}],"stateMutability":"view","type":"function"},{"inputs":[{"internalType":"uint256","name":"poolId","type":"uint256"}],"name":"getPoolInfo","outputs":[{"internalType":"address","name":"token0","type":"address"},{"internalType":"address","name":"token1","type":"address"},{"internalType":"uint256","name":"reserve0","type":"uint256"},{"internalType":"uint256","name":"reserve1","type":"uint256"},{"internalType":"uint256","name":"totalLPTokens","type":"uint256"}],"stateMutability":"view","type":"function"},{"inputs":[{"internalType":"uint256","name":"poolId","type":"uint256"},{"internalType":"address","name":"user","type":"address"}],"name":"getUserPosition","outputs":[{"internalType":"uint256","name":"lpTokens","type":"uint256"},{"internalType":"uint256","name":"token0Deposited","type":"uint256"},{"internalType":"uint256","name":"token1Deposited","type":"uint256"}],"stateMutability":"view","type":"function"},{"inputs":[{"internalType":"uint256","name":"","type":"uint256"},{"internalType":"address","name":"","type":"address"}],"name":"lpPositions","outputs":[{"internalType":"uint256","name":"lpTokens","type":"uint256"},{"internalType":"uint256","name":"token0Deposited","type":"uint256"},{"internalType":"uint256","name":"token1Deposited","type":"uint256"}],"stateMutability":"view","type":"function"},{"inputs":[],"name":"owner","outputs":[{"internalType":"address","name":"","type":"address"}],"stateMutability":"view","type":"function"},{"inputs":[{"internalType":"address","name":"","type":"address"},{"internalType":"address","name":"","type":"address"}],"name":"pairToPoolId","outputs":[{"internalType":"uint256","name":"","type":"uint256"}],"stateMutability":"view","type":"function"},{"inputs":[],"name":"poolCount","outputs":[{"internalType":"uint256","name":"","type":"uint256"}],"stateMutability":"view","type":"function"},{"inputs":[{"internalType":"uint256","name":"","type":"uint256"}],"name":"pools","outputs":[{"internalType":"address","name":"token0","type":"address"},{"internalType":"address","name":"token1","type":"address"},{"internalType":"uint256","name":"reserve0","type":"uint256"},{"internalType":"uint256","name":"reserve1","type":"uint256"},{"internalType":"uint256","name":"totalLPTokens","type":"uint256"},{"internalType":"bool","name":"exists","type":"bool"}],"stateMutability":"view","type":"function"},{"inputs":[{"internalType":"uint256","name":"amountA","type":"uint256"},{"internalType":"uint256","name":"reserveA","type":"uint256"},{"internalType":"uint256","name":"reserveB","type":"uint256"}],"name":"quote","outputs":[{"internalType":"uint256","name":"amountB","type":"uint256"}],"stateMutability":"pure","type":"function"},{"inputs":[{"internalType":"uint256","name":"poolId","type":"uint256"},{"internalType":"uint256","name":"lpTokens","type":"uint256"},{"internalType":"uint256","name":"amount0Min","type":"uint256"},{"internalType":"uint256","name":"amount1Min","type":"uint256"}],"name":"removeLiquidity","outputs":[{"internalType":"uint256","name":"amount0","type":"uint256"},{"internalType":"uint256","name":"amount1","type":"uint256"}],"stateMutability":"nonpayable","type":"function"},{"inputs":[{"internalType":"uint256","name":"poolId","type":"uint256"},{"internalType":"address","name":"tokenIn","type":"address"},{"internalType":"uint256","name":"amountIn","type":"uint256"},{"internalType":"uint256","name":"amountOutMin","type":"uint256"}],"name":"swap","outputs":[{"internalType":"uint256","name":"amountOut","type":"uint256"}],"stateMutability":"nonpayable","type":"function"}],"evm":{"bytecode":{"linkReferences":{},"object":"6080806040523461002857600080546001600160a01b0319163317905561134c908161002e8239f35b600080fdfe604060808152600436101561001357600080fd5b60003560e01c8063054d50d41461100c578063087d596514610fbf5780631112394214610e825780632ef61c2114610f565780632f380b3514610ee4578063869da9db14610e825780638da5cb5b14610e59578063a360501c14610a0a578063ac4afa3814610998578063ad615dec14610976578063b33daea914610673578063d73792a914610656578063e34336151461040f578063eaf98d23146103f3578063f525cb68146103d45763f88bf15a146100cd57600080fd5b346103cf5760803660031901126103cf576004356000526002602052806000206100fd60ff60058301541661108f565b6004356000526003602052816000203360005260205281600020906024358254106103995790816002610192930154916101a061013c846024356111a2565b61014b600485015480926111b5565b958695600386015461018861016b85610166846024356111a2565b6111b5565b9889936044358210158061038d575b610183906110cc565b6111e2565b60028801556111e2565b6003850155602435906111e2565b60048301556101b260243582546111e2565b808255806103085750600281600060018194015501555b8054845163a9059cbb60e01b808252336004830152602482018690529290916001600160a01b0391906020908490604490829060009087165af19081156102fd576102216001926020956000916102e0575b50611124565b015486519384523360048501526024840185905283916044918391600091165af180156102d55761025a916000916102a6575b50611163565b82518281526020810182905260243560408201523390600435907f9c27aedc1d1fccd4271dc15980dab26a907cdb41ed08aef747c6d0a9680f55ce90606090a382519182526020820152f35b6102c8915060203d6020116102ce575b6102c0818361106d565b81019061110c565b38610254565b503d6102b6565b84513d6000823e3d90fd5b6102f79150863d88116102ce576102c0818361106d565b3861021b565b87513d6000823e3d90fd5b670de0b6b3a7640000918260243502602435810484146024351517156103775761034460029161033e61037095602435906111d5565b906111b5565b916001810161036081548761035987836111a2565b04906111e2565b90550192610359845492836111a2565b90556101c9565b634e487b7160e01b600052601160045260246000fd5b5060643585101561017a565b825162461bcd60e51b815260206004820152600f60248201526e0496e73756666696369656e74204c5608c1b6044820152606490fd5b600080fd5b50346103cf5760003660031901126103cf576020906001549051908152f35b50346103cf5760003660031901126103cf5760209051601e8152f35b50346103cf57806003193601126103cf57610428611041565b90610431611057565b6001600160a01b039290919082818581168015158061064b575b1561061857868316908181146105e757908794939291116105dc575b505016918260005260209360048552808360002092169182600052855282600020546105aa57600154600019811461037757600101938460015583519060c082019382851067ffffffffffffffff8611176105945786600587948a7f1a7a1d16c3ec9167827a7be3534be26288720a0bdd3de56d290f415db3d3e0a697849988528683528183018681528884019060008252606085019260008452600260808701956000875260a088019960018b5260005252808b600020965116906bffffffffffffffffffffffff60a01b91828854161787556001870192511690825416179055516002840155516003830155516004820155019051151560ff80198354169116179055816000526004885282600020816000528852848360002055825191825287820152a251908152f35b634e487b7160e01b600052604160045260246000fd5b825162461bcd60e51b815260048101869052600b60248201526a506f6f6c2065786973747360a81b6044820152606490fd5b945090503880610467565b855162461bcd60e51b815260206004820152600a60248201526929b0b6b2903a37b5b2b760b11b6044820152606490fd5b845162461bcd60e51b815260206004820152600c60248201526b5a65726f206164647265737360a01b6044820152606490fd5b50868316151561044b565b50346103cf5760003660031901126103cf57602090516127108152f35b50346103cf5760803660031901126103cf5760043590610691611057565b9060443591836000526020936002855282600020936106b660ff60058701541661108f565b84546001600160a01b0395938616939086168414808015610967575b15610933578015610926576106f960028301545b821561091b576003840154905b856111ef565b9660643588106108e35786516323b872dd60e01b815233600482015230602482015260448101859052898160648160008b5af19081156108d8576000916108bb575b5015610883578115610876578861077d826001860154165b895163a9059cbb60e01b8152336004820152602481018c9052938492839160009183906044820190565b0393165af19081156102fd57600091610859575b501561082057156107f957806002600392016107ae8482546111d5565b9055016107bc8682546111e2565b90555b83519283528583015283838301527fbcb6ba82bf7b5ab7e1ef293120339d48a22f48e74d6c080577d569489528028460603393a351908152f35b8060036002920161080b8482546111d5565b9055016108198682546111e2565b90556107bf565b855162461bcd60e51b8152600481018990526012602482015271151c985b9cd9995c93dd5d0819985a5b195960721b6044820152606490fd5b6108709150893d8b116102ce576102c0818361106d565b38610791565b8861077d82855416610753565b865162461bcd60e51b8152600481018a90526011602482015270151c985b9cd9995c925b8819985a5b1959607a1b6044820152606490fd5b6108d291508a3d8c116102ce576102c0818361106d565b3861073b565b88513d6000823e3d90fd5b865162461bcd60e51b8152600481018a90526011602482015270151bdbc81b1a5d1d1b19481bdd5d1c1d5d607a1b6044820152606490fd5b6002840154906106f3565b6106f960038301546106e6565b855162461bcd60e51b815260048101899052600d60248201526c24b73b30b634b2103a37b5b2b760991b6044820152606490fd5b508660018301541685146106d2565b50346103cf5760209061099161098b36611027565b916112af565b9051908152f35b50346103cf5760203660031901126103cf5760c0906004356000526002602052806000209060018060a01b0391828154169260018201541691600282015460038301549160ff6005600486015495015416948151968752602087015285015260608401526080830152151560a0820152f35b50346103cf5760a03660031901126103cf57600435602491823592604435916064359360843581600052602090600282528360002090610a5060ff60058401541661108f565b60028201988954801580610e4d575b15610d48575090610a7d9197985b8810159081610d3d575b506110cc565b805484516323b872dd60e01b808252336004830152306024830152604482018990526001600160a01b039a92909190859082908d16816000816064810103925af19081156102fd57610b1392610add87938d93600091610d265750611124565b6001868101548a5192835233600484015230602484015260448301939093529c9093849290911690829060009082906064820190565b03925af1908115610d1b5790610b3091600091610d045750611163565b60048201918254918215600014610cc057610b4b8a8a6111a2565b60006003821115610cb3575080808d1c8d8101809111610c9e57905b828210610c805750505b975b8815610c4d575087600295938b610ba860038d9e9f989686610c499f610b9d90610baf99546111d5565b9055019182546111d5565b90556111d5565b90558360005260038152846000209033600052528360002090610bd38683546111d5565b82558101610be28882546111d5565b905501610bf08782546111d5565b9055815185815260208101879052604081018490523391907f089607a52cca0d390ff7d0ad4e97545804dcc41418e1daee9ec3948596fec94490606090a351938493846040919493926060820195825260208201520152565b0390f35b85600e6064928a519262461bcd60e51b845260048401528201526d5a65726f204c5020746f6b656e7360901b6044820152fd5b909150610c9682610c9181846111b5565b6111d5565b8d1c90610b67565b8a634e487b7160e01b60005260116004526000fd5b9015610b7157508a610b71565b610cd5610ccd848b6111a2565b8254906111b5565b610ced610ce2858d6111a2565b6003850154906111b5565b80821015610cfd57505b97610b73565b9050610cf7565b6102c89150853d87116102ce576102c0818361106d565b86513d6000823e3d90fd5b6102f79150853d87116102ce576102c0818361106d565b905088101538610a77565b97600384015498610d5a8a82856112af565b99828b11610dae57505050818810610d785790610a7d919798610a6d565b855162461bcd60e51b8152600481018590526010818901526f536c6970706167653a20746f6b656e3160801b6044820152606490fd5b82610dba939b506112af565b908111610e0a57888110610dd45790610a7d919798610a6d565b855162461bcd60e51b8152600481018590526010818901526f0536c6970706167653a20746f6b656e360841b6044820152606490fd5b855162461bcd60e51b8152600481018590526017818901527f4f7074696d616c206578636565647320646573697265640000000000000000006044820152606490fd5b50600384015415610a5f565b50346103cf5760003660031901126103cf5760005490516001600160a01b039091168152602090f35b50346103cf57806003193601126103cf57610e9b611057565b6004356000908152600360209081528382206001600160a01b03939093168252918252829020805460018201546002909201549351908152918201526040810191909152606090f35b50346103cf5760203660031901126103cf5760a09060043560005260026020528060002090610f1960ff60058401541661108f565b600180841b039182815416926001820154169160028201549060046003840154930154938151958652602086015284015260608301526080820152f35b50346103cf57806003193601126103cf57602090610f72611041565b610f7a611057565b906001600160a01b0390828183821684821611610fb4575b5050811660005260048452826000209116600052825280600020549051908152f35b935090508138610f92565b50346103cf57806003193601126103cf57602090610fdb611041565b610fe3611057565b9060018060a01b0380911660005260048452826000209116600052825280600020549051908152f35b50346103cf5760209061099161102136611027565b916111ef565b60609060031901126103cf57600435906024359060443590565b600435906001600160a01b03821682036103cf57565b602435906001600160a01b03821682036103cf57565b90601f8019910116810190811067ffffffffffffffff82111761059457604052565b1561109657565b60405162461bcd60e51b815260206004820152600e60248201526d141bdbdb081b9bdd08199bdd5b9960921b6044820152606490fd5b156110d357565b60405162461bcd60e51b815260206004820152601160248201527042656c6f77206d696e20616d6f756e747360781b6044820152606490fd5b908160209103126103cf575180151581036103cf5790565b1561112b57565b60405162461bcd60e51b815260206004820152601060248201526f151c985b9cd9995c8c0819985a5b195960821b6044820152606490fd5b1561116a57565b60405162461bcd60e51b815260206004820152601060248201526f151c985b9cd9995c8c4819985a5b195960821b6044820152606490fd5b8181029291811591840414171561037757565b81156111bf570490565b634e487b7160e01b600052601260045260246000fd5b9190820180921161037757565b9190820391821161037757565b9190821561127d57801591821580611274575b15611240576126f2808502948504036103775761121f90846111a2565b916127108083029283041417156103775761123d9261033e916111d5565b90565b60405162461bcd60e51b815260206004820152600c60248201526b4e6f206c697175696469747960a01b6044820152606490fd5b50801515611202565b60405162461bcd60e51b815260206004820152600a60248201526916995c9bc81a5b9c1d5d60b21b6044820152606490fd5b8015158061130d575b80611304575b156112d05761123d92610166916111a2565b60405162461bcd60e51b815260206004820152600c60248201526b496e76616c6964206172677360a01b6044820152606490fd5b508215156112be565b508115156112b856fea26469706673582212201f8199afb542babc98e3da3f404160d722d75e2f6e807c59a630cbdb5c2fa4c364736f6c63430008140033","opcodes":"PUSH1 0x80 DUP1 PUSH1 0x40 MSTORE CALLVALUE PUSH2 0x28 JUMPI PUSH1 0x0 DUP1 SLOAD PUSH1 0x1 PUSH1 0x1 PUSH1 0xA0 SHL SUB NOT AND CALLER OR SWAP1 SSTORE PUSH2 0x134C SWAP1 DUP2 PUSH2 0x2E DUP3 CODECOPY RETURN JUMPDEST PUSH1 0x0 DUP1 REVERT INVALID PUSH1 0x40 PUSH1 0x80 DUP2 MSTORE PUSH1 0x4 CALLDATASIZE LT ISZERO PUSH2 0x13 JUMPI PUSH1 0x0 DUP1 REVERT JUMPDEST PUSH1 0x0 CALLDATALOAD PUSH1 0xE0 SHR DUP1 PUSH4 0x54D50D4 EQ PUSH2 0x100C JUMPI DUP1 PUSH4 0x87D5965 EQ PUSH2 0xFBF JUMPI DUP1 PUSH4 0x11123942 EQ PUSH2 0xE82 JUMPI DUP1 PUSH4 0x2EF61C21 EQ PUSH2 0xF56 JUMPI DUP1 PUSH4 0x2F380B35 EQ PUSH2 0xEE4 JUMPI DUP1 PUSH4 0x869DA9DB EQ PUSH2 0xE82 JUMPI DUP1 PUSH4 0x8DA5CB5B EQ PUSH2 0xE59 JUMPI DUP1 PUSH4 0xA360501C EQ PUSH2 0xA0A JUMPI DUP1 PUSH4 0xAC4AFA38 EQ PUSH2 0x998 JUMPI DUP1 PUSH4 0xAD615DEC EQ PUSH2 0x976 JUMPI DUP1 PUSH4 0xB33DAEA9 EQ PUSH2 0x673 JUMPI DUP1 PUSH4 0xD73792A9 EQ PUSH2 0x656 JUMPI DUP1 PUSH4 0xE3433615 EQ PUSH2 0x40F JUMPI DUP1 PUSH4 0xEAF98D23 EQ PUSH2 0x3F3 JUMPI DUP1 PUSH4 0xF525CB68 EQ PUSH2 0x3D4 JUMPI PUSH4 0xF88BF15A EQ PUSH2 0xCD JUMPI PUSH1 0x0 DUP1 REVERT JUMPDEST CALLVALUE PUSH2 0x3CF JUMPI PUSH1 0x80 CALLDATASIZE PUSH1 0x3 NOT ADD SLT PUSH2 0x3CF JUMPI PUSH1 0x4 CALLDATALOAD PUSH1 0x0 MSTORE PUSH1 0x2 PUSH1 0x20 MSTORE DUP1 PUSH1 0x0 KECCAK256 PUSH2 0xFD PUSH1 0xFF PUSH1 0x5 DUP4 ADD SLOAD AND PUSH2 0x108F JUMP JUMPDEST PUSH1 0x4 CALLDATALOAD PUSH1 0x0 MSTORE PUSH1 0x3 PUSH1 0x20 MSTORE DUP2 PUSH1 0x0 KECCAK256 CALLER PUSH1 0x0 MSTORE PUSH1 0x20 MSTORE DUP2 PUSH1 0x0 KECCAK256 SWAP1 PUSH1 0x24 CALLDATALOAD DUP3 SLOAD LT PUSH2 0x399 JUMPI SWAP1 DUP2 PUSH1 0x2 PUSH2 0x192 SWAP4 ADD SLOAD SWAP2 PUSH2 0x1A0 PUSH2 0x13C DUP5 PUSH1 0x24 CALLDATALOAD PUSH2 0x11A2 JUMP JUMPDEST PUSH2 0x14B PUSH1 0x4 DUP6 ADD SLOAD DUP1 SWAP3 PUSH2 0x11B5 JUMP JUMPDEST SWAP6 DUP7 SWAP6 PUSH1 0x3 DUP7 ADD SLOAD PUSH2 0x188 PUSH2 0x16B DUP6 PUSH2 0x166 DUP5 PUSH1 0x24 CALLDATALOAD PUSH2 0x11A2 JUMP JUMPDEST PUSH2 0x11B5 JUMP JUMPDEST SWAP9 DUP10 SWAP4 PUSH1 0x44 CALLDATALOAD DUP3 LT ISZERO DUP1 PUSH2 0x38D JUMPI JUMPDEST PUSH2 0x183 SWAP1 PUSH2 0x10CC JUMP JUMPDEST PUSH2 0x11E2 JUMP JUMPDEST PUSH1 0x2 DUP9 ADD SSTORE PUSH2 0x11E2 JUMP JUMPDEST PUSH1 0x3 DUP6 ADD SSTORE PUSH1 0x24 CALLDATALOAD SWAP1 PUSH2 0x11E2 JUMP JUMPDEST PUSH1 0x4 DUP4 ADD SSTORE PUSH2 0x1B2 PUSH1 0x24 CALLDATALOAD DUP3 SLOAD PUSH2 0x11E2 JUMP JUMPDEST DUP1 DUP3 SSTORE DUP1 PUSH2 0x308 JUMPI POP PUSH1 0x2 DUP2 PUSH1 0x0 PUSH1 0x1 DUP2 SWAP5 ADD SSTORE ADD SSTORE JUMPDEST DUP1 SLOAD DUP5 MLOAD PUSH4 0xA9059CBB PUSH1 0xE0 SHL DUP1 DUP3 MSTORE CALLER PUSH1 0x4 DUP4 ADD MSTORE PUSH1 0x24 DUP3 ADD DUP7 SWAP1 MSTORE SWAP3 SWAP1 SWAP2 PUSH1 0x1 PUSH1 0x1 PUSH1 0xA0 SHL SUB SWAP2 SWAP1 PUSH1 0x20 SWAP1 DUP5 SWAP1 PUSH1 0x44 SWAP1 DUP3 SWAP1 PUSH1 0x0 SWAP1 DUP8 AND GAS CALL SWAP1 DUP2 ISZERO PUSH2 0x2FD JUMPI PUSH2 0x221 PUSH1 0x1 SWAP3 PUSH1 0x20 SWAP6 PUSH1 0x0 SWAP2 PUSH2 0x2E0 JUMPI JUMPDEST POP PUSH2 0x1124 JUMP JUMPDEST ADD SLOAD DUP7 MLOAD SWAP4 DUP5 MSTORE CALLER PUSH1 0x4 DUP6 ADD MSTORE PUSH1 0x24 DUP5 ADD DUP6 SWAP1 MSTORE DUP4 SWAP2 PUSH1 0x44 SWAP2 DUP4 SWAP2 PUSH1 0x0 SWAP2 AND GAS CALL DUP1 ISZERO PUSH2 0x2D5 JUMPI PUSH2 0x25A SWAP2 PUSH1 0x0 SWAP2 PUSH2 0x2A6 JUMPI JUMPDEST POP PUSH2 0x1163 JUMP JUMPDEST DUP3 MLOAD DUP3 DUP2 MSTORE PUSH1 0x20 DUP2 ADD DUP3 SWAP1 MSTORE PUSH1 0x24 CALLDATALOAD PUSH1 0x40 DUP3 ADD MSTORE CALLER SWAP1 PUSH1 0x4 CALLDATALOAD SWAP1 PUSH32 0x9C27AEDC1D1FCCD4271DC15980DAB26A907CDB41ED08AEF747C6D0A9680F55CE SWAP1 PUSH1 0x60 SWAP1 LOG3 DUP3 MLOAD SWAP2 DUP3 MSTORE PUSH1 0x20 DUP3 ADD MSTORE RETURN JUMPDEST PUSH2 0x2C8 SWAP2 POP PUSH1 0x20 RETURNDATASIZE PUSH1 0x20 GT PUSH2 0x2CE JUMPI JUMPDEST PUSH2 0x2C0 DUP2 DUP4 PUSH2 0x106D JUMP JUMPDEST DUP2 ADD SWAP1 PUSH2 0x110C JUMP JUMPDEST CODESIZE PUSH2 0x254 JUMP JUMPDEST POP RETURNDATASIZE PUSH2 0x2B6 JUMP JUMPDEST DUP5 MLOAD RETURNDATASIZE PUSH1 0x0 DUP3 RETURNDATACOPY RETURNDATASIZE SWAP1 REVERT JUMPDEST PUSH2 0x2F7 SWAP2 POP DUP7 RETURNDATASIZE DUP9 GT PUSH2 0x2CE JUMPI PUSH2 0x2C0 DUP2 DUP4 PUSH2 0x106D JUMP JUMPDEST CODESIZE PUSH2 0x21B JUMP JUMPDEST DUP8 MLOAD RETURNDATASIZE PUSH1 0x0 DUP3 RETURNDATACOPY RETURNDATASIZE SWAP1 REVERT JUMPDEST PUSH8 0xDE0B6B3A7640000 SWAP2 DUP3 PUSH1 0x24 CALLDATALOAD MUL PUSH1 0x24 CALLDATALOAD DUP2 DIV DUP5 EQ PUSH1 0x24 CALLDATALOAD ISZERO OR ISZERO PUSH2 0x377 JUMPI PUSH2 0x344 PUSH1 0x2 SWAP2 PUSH2 0x33E PUSH2 0x370 SWAP6 PUSH1 0x24 CALLDATALOAD SWAP1 PUSH2 0x11D5 JUMP JUMPDEST SWAP1 PUSH2 0x11B5 JUMP JUMPDEST SWAP2 PUSH1 0x1 DUP2 ADD PUSH2 0x360 DUP2 SLOAD DUP8 PUSH2 0x359 DUP8 DUP4 PUSH2 0x11A2 JUMP JUMPDEST DIV SWAP1 PUSH2 0x11E2 JUMP JUMPDEST SWAP1 SSTORE ADD SWAP3 PUSH2 0x359 DUP5 SLOAD SWAP3 DUP4 PUSH2 0x11A2 JUMP JUMPDEST SWAP1 SSTORE PUSH2 0x1C9 JUMP JUMPDEST PUSH4 0x4E487B71 PUSH1 0xE0 SHL PUSH1 0x0 MSTORE PUSH1 0x11 PUSH1 0x4 MSTORE PUSH1 0x24 PUSH1 0x0 REVERT JUMPDEST POP PUSH1 0x64 CALLDATALOAD DUP6 LT ISZERO PUSH2 0x17A JUMP JUMPDEST DUP3 MLOAD PUSH3 0x461BCD PUSH1 0xE5 SHL DUP2 MSTORE PUSH1 0x20 PUSH1 0x4 DUP3 ADD MSTORE PUSH1 0xF PUSH1 0x24 DUP3 ADD MSTORE PUSH15 0x496E73756666696369656E74204C5 PUSH1 0x8C SHL PUSH1 0x44 DUP3 ADD MSTORE PUSH1 0x64 SWAP1 REVERT JUMPDEST PUSH1 0x0 DUP1 REVERT JUMPDEST POP CALLVALUE PUSH2 0x3CF JUMPI PUSH1 0x0 CALLDATASIZE PUSH1 0x3 NOT ADD SLT PUSH2 0x3CF JUMPI PUSH1 0x20 SWAP1 PUSH1 0x1 SLOAD SWAP1 MLOAD SWAP1 DUP2 MSTORE RETURN JUMPDEST POP CALLVALUE PUSH2 0x3CF JUMPI PUSH1 0x0 CALLDATASIZE PUSH1 0x3 NOT ADD SLT PUSH2 0x3CF JUMPI PUSH1 0x20 SWAP1 MLOAD PUSH1 0x1E DUP2 MSTORE RETURN JUMPDEST POP CALLVALUE PUSH2 0x3CF JUMPI DUP1 PUSH1 0x3 NOT CALLDATASIZE ADD SLT PUSH2 0x3CF JUMPI PUSH2 0x428 PUSH2 0x1041 JUMP JUMPDEST SWAP1 PUSH2 0x431 PUSH2 0x1057 JUMP JUMPDEST PUSH1 0x1 PUSH1 0x1 PUSH1 0xA0 SHL SUB SWAP3 SWAP1 SWAP2 SWAP1 DUP3 DUP2 DUP6 DUP2 AND DUP1 ISZERO ISZERO DUP1 PUSH2 0x64B JUMPI JUMPDEST ISZERO PUSH2 0x618 JUMPI DUP7 DUP4 AND SWAP1 DUP2 DUP2 EQ PUSH2 0x5E7 JUMPI SWAP1 DUP8 SWAP5 SWAP4 SWAP3 SWAP2 GT PUSH2 0x5DC JUMPI JUMPDEST POP POP AND SWAP2 DUP3 PUSH1 0x0 MSTORE PUSH1 0x20 SWAP4 PUSH1 0x4 DUP6 MSTORE DUP1 DUP4 PUSH1 0x0 KECCAK256 SWAP3 AND SWAP2 DUP3 PUSH1 0x0 MSTORE DUP6 MSTORE DUP3 PUSH1 0x0 KECCAK256 SLOAD PUSH2 0x5AA JUMPI PUSH1 0x1 SLOAD PUSH1 0x0 NOT DUP2 EQ PUSH2 0x377 JUMPI PUSH1 0x1 ADD SWAP4 DUP5 PUSH1 0x1 SSTORE DUP4 MLOAD SWAP1 PUSH1 0xC0 DUP3 ADD SWAP4 DUP3 DUP6 LT PUSH8 0xFFFFFFFFFFFFFFFF DUP7 GT OR PUSH2 0x594 JUMPI DUP7 PUSH1 0x5 DUP8 SWAP5 DUP11 PUSH32 0x1A7A1D16C3EC9167827A7BE3534BE26288720A0BDD3DE56D290F415DB3D3E0A6 SWAP8 DUP5 SWAP10 DUP9 MSTORE DUP7 DUP4 MSTORE DUP2 DUP4 ADD DUP7 DUP2 MSTORE DUP9 DUP5 ADD SWAP1 PUSH1 0x0 DUP3 MSTORE PUSH1 0x60 DUP6 ADD SWAP3 PUSH1 0x0 DUP5 MSTORE PUSH1 0x2 PUSH1 0x80 DUP8 ADD SWAP6 PUSH1 0x0 DUP8 MSTORE PUSH1 0xA0 DUP9 ADD SWAP10 PUSH1 0x1 DUP12 MSTORE PUSH1 0x0 MSTORE MSTORE DUP1 DUP12 PUSH1 0x0 KECCAK256 SWAP7 MLOAD AND SWAP1 PUSH12 0xFFFFFFFFFFFFFFFFFFFFFFFF PUSH1 0xA0 SHL SWAP2 DUP3 DUP9 SLOAD AND OR DUP8 SSTORE PUSH1 0x1 DUP8 ADD SWAP3 MLOAD AND SWAP1 DUP3 SLOAD AND OR SWAP1 SSTORE MLOAD PUSH1 0x2 DUP5 ADD SSTORE MLOAD PUSH1 0x3 DUP4 ADD SSTORE MLOAD PUSH1 0x4 DUP3 ADD SSTORE ADD SWAP1 MLOAD ISZERO ISZERO PUSH1 0xFF DUP1 NOT DUP4 SLOAD AND SWAP2 AND OR SWAP1 SSTORE DUP2 PUSH1 0x0 MSTORE PUSH1 0x4 DUP9 MSTORE DUP3 PUSH1 0x0 KECCAK256 DUP2 PUSH1 0x0 MSTORE DUP9 MSTORE DUP5 DUP4 PUSH1 0x0 KECCAK256 SSTORE DUP3 MLOAD SWAP2 DUP3 MSTORE DUP8 DUP3 ADD MSTORE LOG2 MLOAD SWAP1 DUP2 MSTORE RETURN JUMPDEST PUSH4 0x4E487B71 PUSH1 0xE0 SHL PUSH1 0x0 MSTORE PUSH1 0x41 PUSH1 0x4 MSTORE PUSH1 0x24 PUSH1 0x0 REVERT JUMPDEST DUP3 MLOAD PUSH3 0x461BCD PUSH1 0xE5 SHL DUP2 MSTORE PUSH1 0x4 DUP2 ADD DUP7 SWAP1 MSTORE PUSH1 0xB PUSH1 0x24 DUP3 ADD MSTORE PUSH11 0x506F6F6C20657869737473 PUSH1 0xA8 SHL PUSH1 0x44 DUP3 ADD MSTORE PUSH1 0x64 SWAP1 REVERT JUMPDEST SWAP5 POP SWAP1 POP CODESIZE DUP1 PUSH2 0x467 JUMP JUMPDEST DUP6 MLOAD PUSH3 0x461BCD PUSH1 0xE5 SHL DUP2 MSTORE PUSH1 0x20 PUSH1 0x4 DUP3 ADD MSTORE PUSH1 0xA PUSH1 0x24 DUP3 ADD MSTORE PUSH10 0x29B0B6B2903A37B5B2B7 PUSH1 0xB1 SHL PUSH1 0x44 DUP3 ADD MSTORE PUSH1 0x64 SWAP1 REVERT JUMPDEST DUP5 MLOAD PUSH3 0x461BCD PUSH1 0xE5 SHL DUP2 MSTORE PUSH1 0x20 PUSH1 0x4 DUP3 ADD MSTORE PUSH1 0xC PUSH1 0x24 DUP3 ADD MSTORE PUSH12 0x5A65726F2061646472657373 PUSH1 0xA0 SHL PUSH1 0x44 DUP3 ADD MSTORE PUSH1 0x64 SWAP1 REVERT JUMPDEST POP DUP7 DUP4 AND ISZERO ISZERO PUSH2 0x44B JUMP JUMPDEST POP CALLVALUE PUSH2 0x3CF JUMPI PUSH1 0x0 CALLDATASIZE PUSH1 0x3 NOT ADD SLT PUSH2 0x3CF JUMPI PUSH1 0x20 SWAP1 MLOAD PUSH2 0x2710 DUP2 MSTORE RETURN JUMPDEST POP CALLVALUE PUSH2 0x3CF JUMPI PUSH1 0x80 CALLDATASIZE PUSH1 0x3 NOT ADD SLT PUSH2 0x3CF JUMPI PUSH1 0x4 CALLDATALOAD SWAP1 PUSH2 0x691 PUSH2 0x1057 JUMP JUMPDEST SWAP1 PUSH1 0x44 CALLDATALOAD SWAP2 DUP4 PUSH1 0x0 MSTORE PUSH1 0x20 SWAP4 PUSH1 0x2 DUP6 MSTORE DUP3 PUSH1 0x0 KECCAK256 SWAP4 PUSH2 0x6B6 PUSH1 0xFF PUSH1 0x5 DUP8 ADD SLOAD AND PUSH2 0x108F JUMP JUMPDEST DUP5 SLOAD PUSH1 0x1 PUSH1 0x1 PUSH1 0xA0 SHL SUB SWAP6 SWAP4 DUP7 AND SWAP4 SWAP1 DUP7 AND DUP5 EQ DUP1 DUP1 ISZERO PUSH2 0x967 JUMPI JUMPDEST ISZERO PUSH2 0x933 JUMPI DUP1 ISZERO PUSH2 0x926 JUMPI PUSH2 0x6F9 PUSH1 0x2 DUP4 ADD SLOAD JUMPDEST DUP3 ISZERO PUSH2 0x91B JUMPI PUSH1 0x3 DUP5 ADD SLOAD SWAP1 JUMPDEST DUP6 PUSH2 0x11EF JUMP JUMPDEST SWAP7 PUSH1 0x64 CALLDATALOAD DUP9 LT PUSH2 0x8E3 JUMPI DUP7 MLOAD PUSH4 0x23B872DD PUSH1 0xE0 SHL DUP2 MSTORE CALLER PUSH1 0x4 DUP3 ADD MSTORE ADDRESS PUSH1 0x24 DUP3 ADD MSTORE PUSH1 0x44 DUP2 ADD DUP6 SWAP1 MSTORE DUP10 DUP2 PUSH1 0x64 DUP2 PUSH1 0x0 DUP12 GAS CALL SWAP1 DUP2 ISZERO PUSH2 0x8D8 JUMPI PUSH1 0x0 SWAP2 PUSH2 0x8BB JUMPI JUMPDEST POP ISZERO PUSH2 0x883 JUMPI DUP2 ISZERO PUSH2 0x876 JUMPI DUP9 PUSH2 0x77D DUP3 PUSH1 0x1 DUP7 ADD SLOAD AND JUMPDEST DUP10 MLOAD PUSH4 0xA9059CBB PUSH1 0xE0 SHL DUP2 MSTORE CALLER PUSH1 0x4 DUP3 ADD MSTORE PUSH1 0x24 DUP2 ADD DUP13 SWAP1 MSTORE SWAP4 DUP5 SWAP3 DUP4 SWAP2 PUSH1 0x0 SWAP2 DUP4 SWAP1 PUSH1 0x44 DUP3 ADD SWAP1 JUMP JUMPDEST SUB SWAP4 AND GAS CALL SWAP1 DUP2 ISZERO PUSH2 0x2FD JUMPI PUSH1 0x0 SWAP2 PUSH2 0x859 JUMPI JUMPDEST POP ISZERO PUSH2 0x820 JUMPI ISZERO PUSH2 0x7F9 JUMPI DUP1 PUSH1 0x2 PUSH1 0x3 SWAP3 ADD PUSH2 0x7AE DUP5 DUP3 SLOAD PUSH2 0x11D5 JUMP JUMPDEST SWAP1 SSTORE ADD PUSH2 0x7BC DUP7 DUP3 SLOAD PUSH2 0x11E2 JUMP JUMPDEST SWAP1 SSTORE JUMPDEST DUP4 MLOAD SWAP3 DUP4 MSTORE DUP6 DUP4 ADD MSTORE DUP4 DUP4 DUP4 ADD MSTORE PUSH32 0xBCB6BA82BF7B5AB7E1EF293120339D48A22F48E74D6C080577D5694895280284 PUSH1 0x60 CALLER SWAP4 LOG3 MLOAD SWAP1 DUP2 MSTORE RETURN JUMPDEST DUP1 PUSH1 0x3 PUSH1 0x2 SWAP3 ADD PUSH2 0x80B DUP5 DUP3 SLOAD PUSH2 0x11D5 JUMP JUMPDEST SWAP1 SSTORE ADD PUSH2 0x819 DUP7 DUP3 SLOAD PUSH2 0x11E2 JUMP JUMPDEST SWAP1 SSTORE PUSH2 0x7BF JUMP JUMPDEST DUP6 MLOAD PUSH3 0x461BCD PUSH1 0xE5 SHL DUP2 MSTORE PUSH1 0x4 DUP2 ADD DUP10 SWAP1 MSTORE PUSH1 0x12 PUSH1 0x24 DUP3 ADD MSTORE PUSH18 0x151C985B9CD9995C93DD5D0819985A5B1959 PUSH1 0x72 SHL PUSH1 0x44 DUP3 ADD MSTORE PUSH1 0x64 SWAP1 REVERT JUMPDEST PUSH2 0x870 SWAP2 POP DUP10 RETURNDATASIZE DUP12 GT PUSH2 0x2CE JUMPI PUSH2 0x2C0 DUP2 DUP4 PUSH2 0x106D JUMP JUMPDEST CODESIZE PUSH2 0x791 JUMP JUMPDEST DUP9 PUSH2 0x77D DUP3 DUP6 SLOAD AND PUSH2 0x753 JUMP JUMPDEST DUP7 MLOAD PUSH3 0x461BCD PUSH1 0xE5 SHL DUP2 MSTORE PUSH1 0x4 DUP2 ADD DUP11 SWAP1 MSTORE PUSH1 0x11 PUSH1 0x24 DUP3 ADD MSTORE PUSH17 0x151C985B9CD9995C925B8819985A5B1959 PUSH1 0x7A SHL PUSH1 0x44 DUP3 ADD MSTORE PUSH1 0x64 SWAP1 REVERT JUMPDEST PUSH2 0x8D2 SWAP2 POP DUP11 RETURNDATASIZE DUP13 GT PUSH2 0x2CE JUMPI PUSH2 0x2C0 DUP2 DUP4 PUSH2 0x106D JUMP JUMPDEST CODESIZE PUSH2 0x73B JUMP JUMPDEST DUP9 MLOAD RETURNDATASIZE PUSH1 0x0 DUP3 RETURNDATACOPY RETURNDATASIZE SWAP1 REVERT JUMPDEST DUP7 MLOAD PUSH3 0x461BCD PUSH1 0xE5 SHL DUP2 MSTORE PUSH1 0x4 DUP2 ADD DUP11 SWAP1 MSTORE PUSH1 0x11 PUSH1 0x24 DUP3 ADD MSTORE PUSH17 0x151BDBC81B1A5D1D1B19481BDD5D1C1D5D PUSH1 0x7A SHL PUSH1 0x44 DUP3 ADD MSTORE PUSH1 0x64 SWAP1 REVERT JUMPDEST PUSH1 0x2 DUP5 ADD SLOAD SWAP1 PUSH2 0x6F3 JUMP JUMPDEST PUSH2 0x6F9 PUSH1 0x3 DUP4 ADD SLOAD PUSH2 0x6E6 JUMP JUMPDEST DUP6 MLOAD PUSH3 0x461BCD PUSH1 0xE5 SHL DUP2 MSTORE PUSH1 0x4 DUP2 ADD DUP10 SWAP1 MSTORE PUSH1 0xD PUSH1 0x24 DUP3 ADD MSTORE PUSH13 0x24B73B30B634B2103A37B5B2B7 PUSH1 0x99 SHL PUSH1 0x44 DUP3 ADD MSTORE PUSH1 0x64 SWAP1 REVERT JUMPDEST POP DUP7 PUSH1 0x1 DUP4 ADD SLOAD AND DUP6 EQ PUSH2 0x6D2 JUMP JUMPDEST POP CALLVALUE PUSH2 0x3CF JUMPI PUSH1 0x20 SWAP1 PUSH2 0x991 PUSH2 0x98B CALLDATASIZE PUSH2 0x1027 JUMP JUMPDEST SWAP2 PUSH2 0x12AF JUMP JUMPDEST SWAP1 MLOAD SWAP1 DUP2 MSTORE RETURN JUMPDEST POP CALLVALUE PUSH2 0x3CF JUMPI PUSH1 0x20 CALLDATASIZE PUSH1 0x3 NOT ADD SLT PUSH2 0x3CF JUMPI PUSH1 0xC0 SWAP1 PUSH1 0x4 CALLDATALOAD PUSH1 0x0 MSTORE PUSH1 0x2 PUSH1 0x20 MSTORE DUP1 PUSH1 0x0 KECCAK256 SWAP1 PUSH1 0x1 DUP1 PUSH1 0xA0 SHL SUB SWAP2 DUP3 DUP2 SLOAD AND SWAP3 PUSH1 0x1 DUP3 ADD SLOAD AND SWAP2 PUSH1 0x2 DUP3 ADD SLOAD PUSH1 0x3 DUP4 ADD SLOAD SWAP2 PUSH1 0xFF PUSH1 0x5 PUSH1 0x4 DUP7 ADD SLOAD SWAP6 ADD SLOAD AND SWAP5 DUP2 MLOAD SWAP7 DUP8 MSTORE PUSH1 0x20 DUP8 ADD MSTORE DUP6 ADD MSTORE PUSH1 0x60 DUP5 ADD MSTORE PUSH1 0x80 DUP4 ADD MSTORE ISZERO ISZERO PUSH1 0xA0 DUP3 ADD MSTORE RETURN JUMPDEST POP CALLVALUE PUSH2 0x3CF JUMPI PUSH1 0xA0 CALLDATASIZE PUSH1 0x3 NOT ADD SLT PUSH2 0x3CF JUMPI PUSH1 0x4 CALLDATALOAD PUSH1 0x24 SWAP2 DUP3 CALLDATALOAD SWAP3 PUSH1 0x44 CALLDATALOAD SWAP2 PUSH1 0x64 CALLDATALOAD SWAP4 PUSH1 0x84 CALLDATALOAD DUP2 PUSH1 0x0 MSTORE PUSH1 0x20 SWAP1 PUSH1 0x2 DUP3 MSTORE DUP4 PUSH1 0x0 KECCAK256 SWAP1 PUSH2 0xA50 PUSH1 0xFF PUSH1 0x5 DUP5 ADD SLOAD AND PUSH2 0x108F JUMP JUMPDEST PUSH1 0x2 DUP3 ADD SWAP9 DUP10 SLOAD DUP1 ISZERO DUP1 PUSH2 0xE4D JUMPI JUMPDEST ISZERO PUSH2 0xD48 JUMPI POP SWAP1 PUSH2 0xA7D SWAP2 SWAP8 SWAP9 JUMPDEST DUP9 LT ISZERO SWAP1 DUP2 PUSH2 0xD3D JUMPI JUMPDEST POP PUSH2 0x10CC JUMP JUMPDEST DUP1 SLOAD DUP5 MLOAD PUSH4 0x23B872DD PUSH1 0xE0 SHL DUP1 DUP3 MSTORE CALLER PUSH1 0x4 DUP4 ADD MSTORE ADDRESS PUSH1 0x24 DUP4 ADD MSTORE PUSH1 0x44 DUP3 ADD DUP10 SWAP1 MSTORE PUSH1 0x1 PUSH1 0x1 PUSH1 0xA0 SHL SUB SWAP11 SWAP3 SWAP1 SWAP2 SWAP1 DUP6 SWAP1 DUP3 SWAP1 DUP14 AND DUP2 PUSH1 0x0 DUP2 PUSH1 0x64 DUP2 ADD SUB SWAP3 GAS CALL SWAP1 DUP2 ISZERO PUSH2 0x2FD JUMPI PUSH2 0xB13 SWAP3 PUSH2 0xADD DUP8 SWAP4 DUP14 SWAP4 PUSH1 0x0 SWAP2 PUSH2 0xD26 JUMPI POP PUSH2 0x1124 JUMP JUMPDEST PUSH1 0x1 DUP7 DUP2 ADD SLOAD DUP11 MLOAD SWAP3 DUP4 MSTORE CALLER PUSH1 0x4 DUP5 ADD MSTORE ADDRESS PUSH1 0x24 DUP5 ADD MSTORE PUSH1 0x44 DUP4 ADD SWAP4 SWAP1 SWAP4 MSTORE SWAP13 SWAP1 SWAP4 DUP5 SWAP3 SWAP1 SWAP2 AND SWAP1 DUP3 SWAP1 PUSH1 0x0 SWAP1 DUP3 SWAP1 PUSH1 0x64 DUP3 ADD SWAP1 JUMP JUMPDEST SUB SWAP3 GAS CALL SWAP1 DUP2 ISZERO PUSH2 0xD1B JUMPI SWAP1 PUSH2 0xB30 SWAP2 PUSH1 0x0 SWAP2 PUSH2 0xD04 JUMPI POP PUSH2 0x1163 JUMP JUMPDEST PUSH1 0x4 DUP3 ADD SWAP2 DUP3 SLOAD SWAP2 DUP3 ISZERO PUSH1 0x0 EQ PUSH2 0xCC0 JUMPI PUSH2 0xB4B DUP11 DUP11 PUSH2 0x11A2 JUMP JUMPDEST PUSH1 0x0 PUSH1 0x3 DUP3 GT ISZERO PUSH2 0xCB3 JUMPI POP DUP1 DUP1 DUP14 SHR DUP14 DUP2 ADD DUP1 SWAP2 GT PUSH2 0xC9E JUMPI SWAP1 JUMPDEST DUP3 DUP3 LT PUSH2 0xC80 JUMPI POP POP JUMPDEST SWAP8 JUMPDEST DUP9 ISZERO PUSH2 0xC4D JUMPI POP DUP8 PUSH1 0x2 SWAP6 SWAP4 DUP12 PUSH2 0xBA8 PUSH1 0x3 DUP14 SWAP15 SWAP16 SWAP9 SWAP7 DUP7 PUSH2 0xC49 SWAP16 PUSH2 0xB9D SWAP1 PUSH2 0xBAF SWAP10 SLOAD PUSH2 0x11D5 JUMP JUMPDEST SWAP1 SSTORE ADD SWAP2 DUP3 SLOAD PUSH2 0x11D5 JUMP JUMPDEST SWAP1 SSTORE PUSH2 0x11D5 JUMP JUMPDEST SWAP1 SSTORE DUP4 PUSH1 0x0 MSTORE PUSH1 0x3 DUP2 MSTORE DUP5 PUSH1 0x0 KECCAK256 SWAP1 CALLER PUSH1 0x0 MSTORE MSTORE DUP4 PUSH1 0x0 KECCAK256 SWAP1 PUSH2 0xBD3 DUP7 DUP4 SLOAD PUSH2 0x11D5 JUMP JUMPDEST DUP3 SSTORE DUP2 ADD PUSH2 0xBE2 DUP9 DUP3 SLOAD PUSH2 0x11D5 JUMP JUMPDEST SWAP1 SSTORE ADD PUSH2 0xBF0 DUP8 DUP3 SLOAD PUSH2 0x11D5 JUMP JUMPDEST SWAP1 SSTORE DUP2 MLOAD DUP6 DUP2 MSTORE PUSH1 0x20 DUP2 ADD DUP8 SWAP1 MSTORE PUSH1 0x40 DUP2 ADD DUP5 SWAP1 MSTORE CALLER SWAP2 SWAP1 PUSH32 0x89607A52CCA0D390FF7D0AD4E97545804DCC41418E1DAEE9EC3948596FEC944 SWAP1 PUSH1 0x60 SWAP1 LOG3 MLOAD SWAP4 DUP5 SWAP4 DUP5 PUSH1 0x40 SWAP2 SWAP5 SWAP4 SWAP3 PUSH1 0x60 DUP3 ADD SWAP6 DUP3 MSTORE PUSH1 0x20 DUP3 ADD MSTORE ADD MSTORE JUMP JUMPDEST SUB SWAP1 RETURN JUMPDEST DUP6 PUSH1 0xE PUSH1 0x64 SWAP3 DUP11 MLOAD SWAP3 PUSH3 0x461BCD PUSH1 0xE5 SHL DUP5 MSTORE PUSH1 0x4 DUP5 ADD MSTORE DUP3 ADD MSTORE PUSH14 0x5A65726F204C5020746F6B656E73 PUSH1 0x90 SHL PUSH1 0x44 DUP3 ADD MSTORE REVERT JUMPDEST SWAP1 SWAP2 POP PUSH2 0xC96 DUP3 PUSH2 0xC91 DUP2 DUP5 PUSH2 0x11B5 JUMP JUMPDEST PUSH2 0x11D5 JUMP JUMPDEST DUP14 SHR SWAP1 PUSH2 0xB67 JUMP JUMPDEST DUP11 PUSH4 0x4E487B71 PUSH1 0xE0 SHL PUSH1 0x0 MSTORE PUSH1 0x11 PUSH1 0x4 MSTORE PUSH1 0x0 REVERT JUMPDEST SWAP1 ISZERO PUSH2 0xB71 JUMPI POP DUP11 PUSH2 0xB71 JUMP JUMPDEST PUSH2 0xCD5 PUSH2 0xCCD DUP5 DUP12 PUSH2 0x11A2 JUMP JUMPDEST DUP3 SLOAD SWAP1 PUSH2 0x11B5 JUMP JUMPDEST PUSH2 0xCED PUSH2 0xCE2 DUP6 DUP14 PUSH2 0x11A2 JUMP JUMPDEST PUSH1 0x3 DUP6 ADD SLOAD SWAP1 PUSH2 0x11B5 JUMP JUMPDEST DUP1 DUP3 LT ISZERO PUSH2 0xCFD JUMPI POP JUMPDEST SWAP8 PUSH2 0xB73 JUMP JUMPDEST SWAP1 POP PUSH2 0xCF7 JUMP JUMPDEST PUSH2 0x2C8 SWAP2 POP DUP6 RETURNDATASIZE DUP8 GT PUSH2 0x2CE JUMPI PUSH2 0x2C0 DUP2 DUP4 PUSH2 0x106D JUMP JUMPDEST DUP7 MLOAD RETURNDATASIZE PUSH1 0x0 DUP3 RETURNDATACOPY RETURNDATASIZE SWAP1 REVERT JUMPDEST PUSH2 0x2F7 SWAP2 POP DUP6 RETURNDATASIZE DUP8 GT PUSH2 0x2CE JUMPI PUSH2 0x2C0 DUP2 DUP4 PUSH2 0x106D JUMP JUMPDEST SWAP1 POP DUP9 LT ISZERO CODESIZE PUSH2 0xA77 JUMP JUMPDEST SWAP8 PUSH1 0x3 DUP5 ADD SLOAD SWAP9 PUSH2 0xD5A DUP11 DUP3 DUP6 PUSH2 0x12AF JUMP JUMPDEST SWAP10 DUP3 DUP12 GT PUSH2 0xDAE JUMPI POP POP POP DUP2 DUP9 LT PUSH2 0xD78 JUMPI SWAP1 PUSH2 0xA7D SWAP2 SWAP8 SWAP9 PUSH2 0xA6D JUMP JUMPDEST DUP6 MLOAD PUSH3 0x461BCD PUSH1 0xE5 SHL DUP2 MSTORE PUSH1 0x4 DUP2 ADD DUP6 SWAP1 MSTORE PUSH1 0x10 DUP2 DUP10 ADD MSTORE PUSH16 0x536C6970706167653A20746F6B656E31 PUSH1 0x80 SHL PUSH1 0x44 DUP3 ADD MSTORE PUSH1 0x64 SWAP1 REVERT JUMPDEST DUP3 PUSH2 0xDBA SWAP4 SWAP12 POP PUSH2 0x12AF JUMP JUMPDEST SWAP1 DUP2 GT PUSH2 0xE0A JUMPI DUP9 DUP2 LT PUSH2 0xDD4 JUMPI SWAP1 PUSH2 0xA7D SWAP2 SWAP8 SWAP9 PUSH2 0xA6D JUMP JUMPDEST DUP6 MLOAD PUSH3 0x461BCD PUSH1 0xE5 SHL DUP2 MSTORE PUSH1 0x4 DUP2 ADD DUP6 SWAP1 MSTORE PUSH1 0x10 DUP2 DUP10 ADD MSTORE PUSH16 0x536C6970706167653A20746F6B656E3 PUSH1 0x84 SHL PUSH1 0x44 DUP3 ADD MSTORE PUSH1 0x64 SWAP1 REVERT JUMPDEST DUP6 MLOAD PUSH3 0x461BCD PUSH1 0xE5 SHL DUP2 MSTORE PUSH1 0x4 DUP2 ADD DUP6 SWAP1 MSTORE PUSH1 0x17 DUP2 DUP10 ADD MSTORE PUSH32 0x4F7074696D616C20657863656564732064657369726564000000000000000000 PUSH1 0x44 DUP3 ADD MSTORE PUSH1 0x64 SWAP1 REVERT JUMPDEST POP PUSH1 0x3 DUP5 ADD SLOAD ISZERO PUSH2 0xA5F JUMP JUMPDEST POP CALLVALUE PUSH2 0x3CF JUMPI PUSH1 0x0 CALLDATASIZE PUSH1 0x3 NOT ADD SLT PUSH2 0x3CF JUMPI PUSH1 0x0 SLOAD SWAP1 MLOAD PUSH1 0x1 PUSH1 0x1 PUSH1 0xA0 SHL SUB SWAP1 SWAP2 AND DUP2 MSTORE PUSH1 0x20 SWAP1 RETURN JUMPDEST POP CALLVALUE PUSH2 0x3CF JUMPI DUP1 PUSH1 0x3 NOT CALLDATASIZE ADD SLT PUSH2 0x3CF JUMPI PUSH2 0xE9B PUSH2 0x1057 JUMP JUMPDEST PUSH1 0x4 CALLDATALOAD PUSH1 0x0 SWAP1 DUP2 MSTORE PUSH1 0x3 PUSH1 0x20 SWAP1 DUP2 MSTORE DUP4 DUP3 KECCAK256 PUSH1 0x1 PUSH1 0x1 PUSH1 0xA0 SHL SUB SWAP4 SWAP1 SWAP4 AND DUP3 MSTORE SWAP2 DUP3 MSTORE DUP3 SWAP1 KECCAK256 DUP1 SLOAD PUSH1 0x1 DUP3 ADD SLOAD PUSH1 0x2 SWAP1 SWAP3 ADD SLOAD SWAP4 MLOAD SWAP1 DUP2 MSTORE SWAP2 DUP3 ADD MSTORE PUSH1 0x40 DUP2 ADD SWAP2 SWAP1 SWAP2 MSTORE PUSH1 0x60 SWAP1 RETURN JUMPDEST POP CALLVALUE PUSH2 0x3CF JUMPI PUSH1 0x20 CALLDATASIZE PUSH1 0x3 NOT ADD SLT PUSH2 0x3CF JUMPI PUSH1 0xA0 SWAP1 PUSH1 0x4 CALLDATALOAD PUSH1 0x0 MSTORE PUSH1 0x2 PUSH1 0x20 MSTORE DUP1 PUSH1 0x0 KECCAK256 SWAP1 PUSH2 0xF19 PUSH1 0xFF PUSH1 0x5 DUP5 ADD SLOAD AND PUSH2 0x108F JUMP JUMPDEST PUSH1 0x1 DUP1 DUP5 SHL SUB SWAP2 DUP3 DUP2 SLOAD AND SWAP3 PUSH1 0x1 DUP3 ADD SLOAD AND SWAP2 PUSH1 0x2 DUP3 ADD SLOAD SWAP1 PUSH1 0x4 PUSH1 0x3 DUP5 ADD SLOAD SWAP4 ADD SLOAD SWAP4 DUP2 MLOAD SWAP6 DUP7 MSTORE PUSH1 0x20 DUP7 ADD MSTORE DUP5 ADD MSTORE PUSH1 0x60 DUP4 ADD MSTORE PUSH1 0x80 DUP3 ADD MSTORE RETURN JUMPDEST POP CALLVALUE PUSH2 0x3CF JUMPI DUP1 PUSH1 0x3 NOT CALLDATASIZE ADD SLT PUSH2 0x3CF JUMPI PUSH1 0x20 SWAP1 PUSH2 0xF72 PUSH2 0x1041 JUMP JUMPDEST PUSH2 0xF7A PUSH2 0x1057 JUMP JUMPDEST SWAP1 PUSH1 0x1 PUSH1 0x1 PUSH1 0xA0 SHL SUB SWAP1 DUP3 DUP2 DUP4 DUP3 AND DUP5 DUP3 AND GT PUSH2 0xFB4 JUMPI JUMPDEST POP POP DUP2 AND PUSH1 0x0 MSTORE PUSH1 0x4 DUP5 MSTORE DUP3 PUSH1 0x0 KECCAK256 SWAP2 AND PUSH1 0x0 MSTORE DUP3 MSTORE DUP1 PUSH1 0x0 KECCAK256 SLOAD SWAP1 MLOAD SWAP1 DUP2 MSTORE RETURN JUMPDEST SWAP4 POP SWAP1 POP DUP2 CODESIZE PUSH2 0xF92 JUMP JUMPDEST POP CALLVALUE PUSH2 0x3CF JUMPI DUP1 PUSH1 0x3 NOT CALLDATASIZE ADD SLT PUSH2 0x3CF JUMPI PUSH1 0x20 SWAP1 PUSH2 0xFDB PUSH2 0x1041 JUMP JUMPDEST PUSH2 0xFE3 PUSH2 0x1057 JUMP JUMPDEST SWAP1 PUSH1 0x1 DUP1 PUSH1 0xA0 SHL SUB DUP1 SWAP2 AND PUSH1 0x0 MSTORE PUSH1 0x4 DUP5 MSTORE DUP3 PUSH1 0x0 KECCAK256 SWAP2 AND PUSH1 0x0 MSTORE DUP3 MSTORE DUP1 PUSH1 0x0 KECCAK256 SLOAD SWAP1 MLOAD SWAP1 DUP2 MSTORE RETURN JUMPDEST POP CALLVALUE PUSH2 0x3CF JUMPI PUSH1 0x20 SWAP1 PUSH2 0x991 PUSH2 0x1021 CALLDATASIZE PUSH2 0x1027 JUMP JUMPDEST SWAP2 PUSH2 0x11EF JUMP JUMPDEST PUSH1 0x60 SWAP1 PUSH1 0x3 NOT ADD SLT PUSH2 0x3CF JUMPI PUSH1 0x4 CALLDATALOAD SWAP1 PUSH1 0x24 CALLDATALOAD SWAP1 PUSH1 0x44 CALLDATALOAD SWAP1 JUMP JUMPDEST PUSH1 0x4 CALLDATALOAD SWAP1 PUSH1 0x1 PUSH1 0x1 PUSH1 0xA0 SHL SUB DUP3 AND DUP3 SUB PUSH2 0x3CF JUMPI JUMP JUMPDEST PUSH1 0x24 CALLDATALOAD SWAP1 PUSH1 0x1 PUSH1 0x1 PUSH1 0xA0 SHL SUB DUP3 AND DUP3 SUB PUSH2 0x3CF JUMPI JUMP JUMPDEST SWAP1 PUSH1 0x1F DUP1 NOT SWAP2 ADD AND DUP2 ADD SWAP1 DUP2 LT PUSH8 0xFFFFFFFFFFFFFFFF DUP3 GT OR PUSH2 0x594 JUMPI PUSH1 0x40 MSTORE JUMP JUMPDEST ISZERO PUSH2 0x1096 JUMPI JUMP JUMPDEST PUSH1 0x40 MLOAD PUSH3 0x461BCD PUSH1 0xE5 SHL DUP2 MSTORE PUSH1 0x20 PUSH1 0x4 DUP3 ADD MSTORE PUSH1 0xE PUSH1 0x24 DUP3 ADD MSTORE PUSH14 0x141BDBDB081B9BDD08199BDD5B99 PUSH1 0x92 SHL PUSH1 0x44 DUP3 ADD MSTORE PUSH1 0x64 SWAP1 REVERT JUMPDEST ISZERO PUSH2 0x10D3 JUMPI JUMP JUMPDEST PUSH1 0x40 MLOAD PUSH3 0x461BCD PUSH1 0xE5 SHL DUP2 MSTORE PUSH1 0x20 PUSH1 0x4 DUP3 ADD MSTORE PUSH1 0x11 PUSH1 0x24 DUP3 ADD MSTORE PUSH17 0x42656C6F77206D696E20616D6F756E7473 PUSH1 0x78 SHL PUSH1 0x44 DUP3 ADD MSTORE PUSH1 0x64 SWAP1 REVERT JUMPDEST SWAP1 DUP2 PUSH1 0x20 SWAP2 SUB SLT PUSH2 0x3CF JUMPI MLOAD DUP1 ISZERO ISZERO DUP2 SUB PUSH2 0x3CF JUMPI SWAP1 JUMP JUMPDEST ISZERO PUSH2 0x112B JUMPI JUMP JUMPDEST PUSH1 0x40 MLOAD PUSH3 0x461BCD PUSH1 0xE5 SHL DUP2 MSTORE PUSH1 0x20 PUSH1 0x4 DUP3 ADD MSTORE PUSH1 0x10 PUSH1 0x24 DUP3 ADD MSTORE PUSH16 0x151C985B9CD9995C8C0819985A5B1959 PUSH1 0x82 SHL PUSH1 0x44 DUP3 ADD MSTORE PUSH1 0x64 SWAP1 REVERT JUMPDEST ISZERO PUSH2 0x116A JUMPI JUMP JUMPDEST PUSH1 0x40 MLOAD PUSH3 0x461BCD PUSH1 0xE5 SHL DUP2 MSTORE PUSH1 0x20 PUSH1 0x4 DUP3 ADD MSTORE PUSH1 0x10 PUSH1 0x24 DUP3 ADD MSTORE PUSH16 0x151C985B9CD9995C8C4819985A5B1959 PUSH1 0x82 SHL PUSH1 0x44 DUP3 ADD MSTORE PUSH1 0x64 SWAP1 REVERT JUMPDEST DUP2 DUP2 MUL SWAP3 SWAP2 DUP2 ISZERO SWAP2 DUP5 DIV EQ OR ISZERO PUSH2 0x377 JUMPI JUMP JUMPDEST DUP2 ISZERO PUSH2 0x11BF JUMPI DIV SWAP1 JUMP JUMPDEST PUSH4 0x4E487B71 PUSH1 0xE0 SHL PUSH1 0x0 MSTORE PUSH1 0x12 PUSH1 0x4 MSTORE PUSH1 0x24 PUSH1 0x0 REVERT JUMPDEST SWAP2 SWAP1 DUP3 ADD DUP1 SWAP3 GT PUSH2 0x377 JUMPI JUMP JUMPDEST SWAP2 SWAP1 DUP3 SUB SWAP2 DUP3 GT PUSH2 0x377 JUMPI JUMP JUMPDEST SWAP2 SWAP1 DUP3 ISZERO PUSH2 0x127D JUMPI DUP1 ISZERO SWAP2 DUP3 ISZERO DUP1 PUSH2 0x1274 JUMPI JUMPDEST ISZERO PUSH2 0x1240 JUMPI PUSH2 0x26F2 DUP1 DUP6 MUL SWAP5 DUP6 DIV SUB PUSH2 0x377 JUMPI PUSH2 0x121F SWAP1 DUP5 PUSH2 0x11A2 JUMP JUMPDEST SWAP2 PUSH2 0x2710 DUP1 DUP4 MUL SWAP3 DUP4 DIV EQ OR ISZERO PUSH2 0x377 JUMPI PUSH2 0x123D SWAP3 PUSH2 0x33E SWAP2 PUSH2 0x11D5 JUMP JUMPDEST SWAP1 JUMP JUMPDEST PUSH1 0x40 MLOAD PUSH3 0x461BCD PUSH1 0xE5 SHL DUP2 MSTORE PUSH1 0x20 PUSH1 0x4 DUP3 ADD MSTORE PUSH1 0xC PUSH1 0x24 DUP3 ADD MSTORE PUSH12 0x4E6F206C6971756964697479 PUSH1 0xA0 SHL PUSH1 0x44 DUP3 ADD MSTORE PUSH1 0x64 SWAP1 REVERT JUMPDEST POP DUP1 ISZERO ISZERO PUSH2 0x1202 JUMP JUMPDEST PUSH1 0x40 MLOAD PUSH3 0x461BCD PUSH1 0xE5 SHL DUP2 MSTORE PUSH1 0x20 PUSH1 0x4 DUP3 ADD MSTORE PUSH1 0xA PUSH1 0x24 DUP3 ADD MSTORE PUSH10 0x16995C9BC81A5B9C1D5D PUSH1 0xB2 SHL PUSH1 0x44 DUP3 ADD MSTORE PUSH1 0x64 SWAP1 REVERT JUMPDEST DUP1 ISZERO ISZERO DUP1 PUSH2 0x130D JUMPI JUMPDEST DUP1 PUSH2 0x1304 JUMPI JUMPDEST ISZERO PUSH2 0x12D0 JUMPI PUSH2 0x123D SWAP3 PUSH2 0x166 SWAP2 PUSH2 0x11A2 JUMP JUMPDEST PUSH1 0x40 MLOAD PUSH3 0x461BCD PUSH1 0xE5 SHL DUP2 MSTORE PUSH1 0x20 PUSH1 0x4 DUP3 ADD MSTORE PUSH1 0xC PUSH1 0x24 DUP3 ADD MSTORE PUSH12 0x496E76616C69642061726773 PUSH1 0xA0 SHL PUSH1 0x44 DUP3 ADD MSTORE PUSH1 0x64 SWAP1 REVERT JUMPDEST POP DUP3 ISZERO ISZERO PUSH2 0x12BE JUMP JUMPDEST POP DUP2 ISZERO ISZERO PUSH2 0x12B8 JUMP INVALID LOG2 PUSH5 0x6970667358 0x22 SLT KECCAK256 0x1F DUP2 SWAP10 0xAF 0xB5 TIMESTAMP 0xBA 0xBC SWAP9 0xE3 0xDA EXTCODEHASH BLOCKHASH COINBASE PUSH1 0xD7 0x22 0xD7 0x5E 0x2F PUSH15 0x807C59A630CBDB5C2FA4C364736F6C PUSH4 0x43000814 STOP CALLER "},"methodIdentifiers":{"FEE_DENOMINATOR()":"d73792a9","FEE_PERCENT()":"eaf98d23","addLiquidity(uint256,uint256,uint256,uint256,uint256)":"a360501c","createPool(address,address)":"e3433615","getAmountOut(uint256,uint256,uint256)":"054d50d4","getPoolId(address,address)":"2ef61c21","getPoolInfo(uint256)":"2f380b35","getUserPosition(uint256,address)":"869da9db","lpPositions(uint256,address)":"11123942","owner()":"8da5cb5b","pairToPoolId(address,address)":"087d5965","poolCount()":"f525cb68","pools(uint256)":"ac4afa38","quote(uint256,uint256,uint256)":"ad615dec","removeLiquidity(uint256,uint256,uint256,uint256)":"f88bf15a","swap(uint256,address,uint256,uint256)":"b33daea9"}}}}}